{
  "contractName": "CoinFlip",
  "abi": [
    {
      "inputs": [],
      "payable": false,
      "stateMutability": "nonpayable",
      "type": "constructor"
    },
    {
      "anonymous": false,
      "inputs": [
        {
          "indexed": false,
          "internalType": "address",
          "name": "player",
          "type": "address"
        },
        {
          "indexed": false,
          "internalType": "uint256",
          "name": "betValue",
          "type": "uint256"
        },
        {
          "indexed": false,
          "internalType": "bytes32",
          "name": "Id",
          "type": "bytes32"
        },
        {
          "indexed": false,
          "internalType": "bool",
          "name": "result",
          "type": "bool"
        }
      ],
      "name": "EndBetEvent",
      "type": "event"
    },
    {
      "anonymous": false,
      "inputs": [
        {
          "indexed": false,
          "internalType": "string",
          "name": "description",
          "type": "string"
        }
      ],
      "name": "LogNewProvableQuery",
      "type": "event"
    },
    {
      "anonymous": false,
      "inputs": [
        {
          "indexed": false,
          "internalType": "address",
          "name": "player",
          "type": "address"
        },
        {
          "indexed": false,
          "internalType": "uint256",
          "name": "betValue",
          "type": "uint256"
        },
        {
          "indexed": false,
          "internalType": "bytes32",
          "name": "Id",
          "type": "bytes32"
        }
      ],
      "name": "StartBetEvent",
      "type": "event"
    },
    {
      "anonymous": false,
      "inputs": [
        {
          "indexed": false,
          "internalType": "uint256",
          "name": "latestNumber",
          "type": "uint256"
        }
      ],
      "name": "latestNumberEvent",
      "type": "event"
    },
    {
      "constant": true,
      "inputs": [],
      "name": "balance",
      "outputs": [
        {
          "internalType": "uint256",
          "name": "",
          "type": "uint256"
        }
      ],
      "payable": false,
      "stateMutability": "view",
      "type": "function"
    },
    {
      "constant": true,
      "inputs": [
        {
          "internalType": "address",
          "name": "",
          "type": "address"
        }
      ],
      "name": "balances",
      "outputs": [
        {
          "internalType": "uint256",
          "name": "",
          "type": "uint256"
        }
      ],
      "payable": false,
      "stateMutability": "view",
      "type": "function"
    },
    {
      "constant": true,
      "inputs": [
        {
          "internalType": "bytes32",
          "name": "",
          "type": "bytes32"
        }
      ],
      "name": "betList",
      "outputs": [
        {
          "internalType": "address payable",
          "name": "player",
          "type": "address"
        },
        {
          "internalType": "uint256",
          "name": "betValue",
          "type": "uint256"
        },
        {
          "internalType": "bool",
          "name": "result",
          "type": "bool"
        }
      ],
      "payable": false,
      "stateMutability": "view",
      "type": "function"
    },
    {
      "constant": true,
      "inputs": [],
      "name": "latestNumber",
      "outputs": [
        {
          "internalType": "uint256",
          "name": "",
          "type": "uint256"
        }
      ],
      "payable": false,
      "stateMutability": "view",
      "type": "function"
    },
    {
      "constant": true,
      "inputs": [],
      "name": "owner",
      "outputs": [
        {
          "internalType": "address",
          "name": "",
          "type": "address"
        }
      ],
      "payable": false,
      "stateMutability": "view",
      "type": "function"
    },
    {
      "constant": true,
      "inputs": [
        {
          "internalType": "address",
          "name": "",
          "type": "address"
        }
      ],
      "name": "waitingList",
      "outputs": [
        {
          "internalType": "bool",
          "name": "",
          "type": "bool"
        }
      ],
      "payable": false,
      "stateMutability": "view",
      "type": "function"
    },
    {
      "constant": false,
      "inputs": [],
      "name": "settleBet",
      "outputs": [],
      "payable": true,
      "stateMutability": "payable",
      "type": "function"
    },
    {
      "constant": false,
      "inputs": [
        {
          "internalType": "bytes32",
          "name": "_myid",
          "type": "bytes32"
        },
        {
          "internalType": "string",
          "name": "_result",
          "type": "string"
        }
      ],
      "name": "__callback",
      "outputs": [],
      "payable": false,
      "stateMutability": "nonpayable",
      "type": "function"
    },
    {
      "constant": false,
      "inputs": [
        {
          "internalType": "bytes32",
          "name": "_queryId",
          "type": "bytes32"
        },
        {
          "internalType": "string",
          "name": "_result",
          "type": "string"
        },
        {
          "internalType": "bytes",
          "name": "_proof",
          "type": "bytes"
        }
      ],
      "name": "__callback",
      "outputs": [],
      "payable": false,
      "stateMutability": "nonpayable",
      "type": "function"
    },
    {
      "constant": false,
      "inputs": [],
      "name": "addFunds",
      "outputs": [
        {
          "internalType": "uint256",
          "name": "",
          "type": "uint256"
        }
      ],
      "payable": true,
      "stateMutability": "payable",
      "type": "function"
    },
    {
      "constant": false,
      "inputs": [],
      "name": "withdrawAll",
      "outputs": [
        {
          "internalType": "uint256",
          "name": "",
          "type": "uint256"
        }
      ],
      "payable": false,
      "stateMutability": "nonpayable",
      "type": "function"
    }
  ],
  "bytecode": "0x60806040523480156200001157600080fd5b50336000806101000a81548173ffffffffffffffffffffffffffffffffffffffff021916908373ffffffffffffffffffffffffffffffffffffffff16021790555062000067603060f81b6200006d60201b60201c565b62000a91565b600073ffffffffffffffffffffffffffffffffffffffff16600260009054906101000a900473ffffffffffffffffffffffffffffffffffffffff1673ffffffffffffffffffffffffffffffffffffffff161480620000fd57506000620000fb600260009054906101000a900473ffffffffffffffffffffffffffffffffffffffff16620003d360201b60201c565b145b156200011757620001156000620003de60201b60201c565b505b600260009054906101000a900473ffffffffffffffffffffffffffffffffffffffff1673ffffffffffffffffffffffffffffffffffffffff166338cc48316040518163ffffffff1660e01b8152600401602060405180830381600087803b1580156200018257600080fd5b505af115801562000197573d6000803e3d6000fd5b505050506040513d6020811015620001ae57600080fd5b810190808051906020019092919050505073ffffffffffffffffffffffffffffffffffffffff16600160009054906101000a900473ffffffffffffffffffffffffffffffffffffffff1673ffffffffffffffffffffffffffffffffffffffff1614620002fd57600260009054906101000a900473ffffffffffffffffffffffffffffffffffffffff1673ffffffffffffffffffffffffffffffffffffffff166338cc48316040518163ffffffff1660e01b8152600401602060405180830381600087803b1580156200027f57600080fd5b505af115801562000294573d6000803e3d6000fd5b505050506040513d6020811015620002ab57600080fd5b8101908080519060200190929190505050600160006101000a81548173ffffffffffffffffffffffffffffffffffffffff021916908373ffffffffffffffffffffffffffffffffffffffff1602179055505b600160009054906101000a900473ffffffffffffffffffffffffffffffffffffffff1673ffffffffffffffffffffffffffffffffffffffff1663688dcfd7826040518263ffffffff1660e01b815260040180827effffffffffffffffffffffffffffffffffffffffffffffffffffffffffffff19167effffffffffffffffffffffffffffffffffffffffffffffffffffffffffffff19168152602001915050600060405180830381600087803b158015620003b757600080fd5b505af1158015620003cc573d6000803e3d6000fd5b5050505050565b6000813b9050919050565b6000620003f0620003f760201b60201c565b9050919050565b6000806200041f731d3b2638a7cc9f2cb3d298a3da7a90b67e5506ed620003d360201b60201c565b1115620004cb57731d3b2638a7cc9f2cb3d298a3da7a90b67e5506ed600260006101000a81548173ffffffffffffffffffffffffffffffffffffffff021916908373ffffffffffffffffffffffffffffffffffffffff160217905550620004c16040518060400160405280600b81526020017f6574685f6d61696e6e6574000000000000000000000000000000000000000000815250620009c660201b60201c565b60019050620009c3565b6000620004f273c03a2615d5efaf5f49f60b7bb6583eaec212fdf1620003d360201b60201c565b11156200059e5773c03a2615d5efaf5f49f60b7bb6583eaec212fdf1600260006101000a81548173ffffffffffffffffffffffffffffffffffffffff021916908373ffffffffffffffffffffffffffffffffffffffff160217905550620005946040518060400160405280600c81526020017f6574685f726f707374656e330000000000000000000000000000000000000000815250620009c660201b60201c565b60019050620009c3565b6000620005c573b7a07bcf2ba2f2703b24c0691b5278999c59ac7e620003d360201b60201c565b1115620006715773b7a07bcf2ba2f2703b24c0691b5278999c59ac7e600260006101000a81548173ffffffffffffffffffffffffffffffffffffffff021916908373ffffffffffffffffffffffffffffffffffffffff160217905550620006676040518060400160405280600981526020017f6574685f6b6f76616e0000000000000000000000000000000000000000000000815250620009c660201b60201c565b60019050620009c3565b60006200069873146500cfd35b22e4a392fe0adc06de1a1368ed48620003d360201b60201c565b1115620007445773146500cfd35b22e4a392fe0adc06de1a1368ed48600260006101000a81548173ffffffffffffffffffffffffffffffffffffffff021916908373ffffffffffffffffffffffffffffffffffffffff1602179055506200073a6040518060400160405280600b81526020017f6574685f72696e6b656279000000000000000000000000000000000000000000815250620009c660201b60201c565b60019050620009c3565b60006200076b73a2998efd205fb9d4b4963afb70778d6354ad3a41620003d360201b60201c565b1115620008175773a2998efd205fb9d4b4963afb70778d6354ad3a41600260006101000a81548173ffffffffffffffffffffffffffffffffffffffff021916908373ffffffffffffffffffffffffffffffffffffffff1602179055506200080d6040518060400160405280600a81526020017f6574685f676f65726c6900000000000000000000000000000000000000000000815250620009c660201b60201c565b60019050620009c3565b60006200083e736f485c8bf6fc43ea212e93bbf8ce046c7f1cb475620003d360201b60201c565b1115620008a457736f485c8bf6fc43ea212e93bbf8ce046c7f1cb475600260006101000a81548173ffffffffffffffffffffffffffffffffffffffff021916908373ffffffffffffffffffffffffffffffffffffffff16021790555060019050620009c3565b6000620008cb7320e12a1f859b3feae5fb2a0a32c18f5a65555bbf620003d360201b60201c565b111562000931577320e12a1f859b3feae5fb2a0a32c18f5a65555bbf600260006101000a81548173ffffffffffffffffffffffffffffffffffffffff021916908373ffffffffffffffffffffffffffffffffffffffff16021790555060019050620009c3565b6000620009587351efaf4c8b3c9afbd5ab9f4bbc82784ab6ef8faa620003d360201b60201c565b1115620009be577351efaf4c8b3c9afbd5ab9f4bbc82784ab6ef8faa600260006101000a81548173ffffffffffffffffffffffffffffffffffffffff021916908373ffffffffffffffffffffffffffffffffffffffff16021790555060019050620009c3565b600090505b90565b8060039080519060200190620009de929190620009e2565b5050565b828054600181600116156101000203166002900490600052602060002090601f016020900481019282601f1062000a2557805160ff191683800117855562000a56565b8280016001018555821562000a56579182015b8281111562000a5557825182559160200191906001019062000a38565b5b50905062000a65919062000a69565b5090565b62000a8e91905b8082111562000a8a57600081600090555060010162000a70565b5090565b90565b613e028062000aa16000396000f3fe60806040526004361061009c5760003560e01c8063853828b611610064578063853828b6146104375780638da5cb5b146104625780638e4bf820146104b9578063a26759cb146104c3578063b69ef8a8146104e1578063dc34b0aa1461050c5761009c565b806327dc297e146100a157806327e235e31461017357806338bbfa50146101d8578063397148d3146103415780635ae129fe146103aa575b600080fd5b3480156100ad57600080fd5b50610171600480360360408110156100c457600080fd5b8101908080359060200190929190803590602001906401000000008111156100eb57600080fd5b8201836020820111156100fd57600080fd5b8035906020019184600183028401116401000000008311171561011f57600080fd5b91908080601f016020809104026020016040519081016040528093929190818152602001838380828437600081840152601f19601f820116905080830192505050505050509192919290505050610537565b005b34801561017f57600080fd5b506101c26004803603602081101561019657600080fd5b81019080803573ffffffffffffffffffffffffffffffffffffffff16906020019092919050505061057a565b6040518082815260200191505060405180910390f35b3480156101e457600080fd5b5061033f600480360360608110156101fb57600080fd5b81019080803590602001909291908035906020019064010000000081111561022257600080fd5b82018360208201111561023457600080fd5b8035906020019184600183028401116401000000008311171561025657600080fd5b91908080601f016020809104026020016040519081016040528093929190818152602001838380828437600081840152601f19601f820116905080830192505050505050509192919290803590602001906401000000008111156102b957600080fd5b8201836020820111156102cb57600080fd5b803590602001918460018302840111640100000000831117156102ed57600080fd5b91908080601f016020809104026020016040519081016040528093929190818152602001838380828437600081840152601f19601f820116905080830192505050505050509192919290505050610592565b005b34801561034d57600080fd5b506103906004803603602081101561036457600080fd5b81019080803573ffffffffffffffffffffffffffffffffffffffff169060200190929190505050610997565b604051808215151515815260200191505060405180910390f35b3480156103b657600080fd5b506103e3600480360360208110156103cd57600080fd5b81019080803590602001909291905050506109b7565b604051808473ffffffffffffffffffffffffffffffffffffffff1673ffffffffffffffffffffffffffffffffffffffff16815260200183815260200182151515158152602001935050505060405180910390f35b34801561044357600080fd5b5061044c610a0e565b6040518082815260200191505060405180910390f35b34801561046e57600080fd5b50610477610ac6565b604051808273ffffffffffffffffffffffffffffffffffffffff1673ffffffffffffffffffffffffffffffffffffffff16815260200191505060405180910390f35b6104c1610aeb565b005b6104cb610ddd565b6040518082815260200191505060405180910390f35b3480156104ed57600080fd5b506104f6610e5d565b6040518082815260200191505060405180910390f35b34801561051857600080fd5b50610521610e63565b6040518082815260200191505060405180910390f35b610576828260006040519080825280601f01601f1916602001820160405280156105705781602001600182028038833980820191505090505b50610592565b5050565b60096020528060005260406000206000915090505481565b61059a610e69565b73ffffffffffffffffffffffffffffffffffffffff163373ffffffffffffffffffffffffffffffffffffffff16146105d157600080fd5b60006105de848484611189565b60ff16146105eb576107dd565b60006002836040516020018082805190602001908083835b602083106106265780518252602082019150602081019050602083039250610603565b6001836020036101000a0380198251168184511680821785525050505050509050019150506040516020818303038152906040528051906020012060001c8161066b57fe5b06905080600781905550600060075414156106da576000600a600086815260200190815260200160002060020160006101000a81548160ff021916908315150217905550600a6000858152602001908152602001600020600101546008600082825401925050819055506107db565b600160075414156107da576001600a600086815260200190815260200160002060020160006101000a81548160ff0219169083151502179055506002600a600086815260200190815260200160002060010154026008600082825403925050819055506002600a6000868152602001908152602001600020600101540260096000600a600088815260200190815260200160002060000160009054906101000a900473ffffffffffffffffffffffffffffffffffffffff1673ffffffffffffffffffffffffffffffffffffffff1673ffffffffffffffffffffffffffffffffffffffff168152602001908152602001600020600082825401925050819055505b5b505b6000600b6000600a600087815260200190815260200160002060000160009054906101000a900473ffffffffffffffffffffffffffffffffffffffff1673ffffffffffffffffffffffffffffffffffffffff1673ffffffffffffffffffffffffffffffffffffffff16815260200190815260200160002060006101000a81548160ff0219169083151502179055507f3268927681ebfd226b1ec82d2a4499abffc9c969993799ba058596a422e2cb116007546040518082815260200191505060405180910390a17f0bf15375620c4ef1c5ed7abe405e0fb986a47a39884fd61f6fd6db8da9b079c1600a600085815260200190815260200160002060000160009054906101000a900473ffffffffffffffffffffffffffffffffffffffff16600a60008681526020019081526020016000206001015485600a600088815260200190815260200160002060020160009054906101000a900460ff16604051808573ffffffffffffffffffffffffffffffffffffffff1673ffffffffffffffffffffffffffffffffffffffff1681526020018481526020018381526020018215151515815260200194505050505060405180910390a1505050565b600b6020528060005260406000206000915054906101000a900460ff1681565b600a6020528060005260406000206000915090508060000160009054906101000a900473ffffffffffffffffffffffffffffffffffffffff16908060010154908060020160009054906101000a900460ff16905083565b60008060009054906101000a900473ffffffffffffffffffffffffffffffffffffffff1673ffffffffffffffffffffffffffffffffffffffff163373ffffffffffffffffffffffffffffffffffffffff1614610a6957600080fd5b6000600854905060006008819055503373ffffffffffffffffffffffffffffffffffffffff166108fc829081150290604051600060405180830381858888f19350505050158015610abe573d6000803e3d6000fd5b508091505090565b6000809054906101000a900473ffffffffffffffffffffffffffffffffffffffff1681565b600034118015610afd57506008543411155b610b0657600080fd5b600260085481610b1257fe5b04341115610b88576040517f08c379a000000000000000000000000000000000000000000000000000000000815260040180806020018281038252601b8152602001807f4e6f7420656e6f7567682066756e647320746f20706179206f7574000000000081525060200191505060405180910390fd5b60001515600b60003373ffffffffffffffffffffffffffffffffffffffff1673ffffffffffffffffffffffffffffffffffffffff16815260200190815260200160002060009054906101000a900460ff16151514610be557600080fd5b6001600b60003373ffffffffffffffffffffffffffffffffffffffff1673ffffffffffffffffffffffffffffffffffffffff16815260200190815260200160002060006101000a81548160ff0219169083151502179055506000809050600062030d409050610c56826001836112b9565b60068190555060405180606001604052803373ffffffffffffffffffffffffffffffffffffffff16815260200134815260200160001515815250600a6000600654815260200190815260200160002060008201518160000160006101000a81548173ffffffffffffffffffffffffffffffffffffffff021916908373ffffffffffffffffffffffffffffffffffffffff1602179055506020820151816001015560408201518160020160006101000a81548160ff0219169083151502179055509050507f65720fbcd98f1bf95d22c3ec7078ef498c8e50205edf54f028ea8240df15a5c13334600654604051808473ffffffffffffffffffffffffffffffffffffffff1673ffffffffffffffffffffffffffffffffffffffff168152602001838152602001828152602001935050505060405180910390a17fc4dc360d0a9c0677a3379ae0a3d81e887f761e65fdf3d7e00859d1bcd3c47389604051808060200182810382526036815260200180613d986036913960400191505060405180910390a15050565b60008060009054906101000a900473ffffffffffffffffffffffffffffffffffffffff1673ffffffffffffffffffffffffffffffffffffffff163373ffffffffffffffffffffffffffffffffffffffff1614610e3857600080fd5b60003411610e4557600080fd5b34600860008282540192505081905550600854905090565b60085481565b60075481565b60008073ffffffffffffffffffffffffffffffffffffffff16600260009054906101000a900473ffffffffffffffffffffffffffffffffffffffff1673ffffffffffffffffffffffffffffffffffffffff161480610ef157506000610eef600260009054906101000a900473ffffffffffffffffffffffffffffffffffffffff16611854565b145b15610f0257610f00600061185f565b505b600260009054906101000a900473ffffffffffffffffffffffffffffffffffffffff1673ffffffffffffffffffffffffffffffffffffffff166338cc48316040518163ffffffff1660e01b8152600401602060405180830381600087803b158015610f6c57600080fd5b505af1158015610f80573d6000803e3d6000fd5b505050506040513d6020811015610f9657600080fd5b810190808051906020019092919050505073ffffffffffffffffffffffffffffffffffffffff16600160009054906101000a900473ffffffffffffffffffffffffffffffffffffffff1673ffffffffffffffffffffffffffffffffffffffff16146110e157600260009054906101000a900473ffffffffffffffffffffffffffffffffffffffff1673ffffffffffffffffffffffffffffffffffffffff166338cc48316040518163ffffffff1660e01b8152600401602060405180830381600087803b15801561106557600080fd5b505af1158015611079573d6000803e3d6000fd5b505050506040513d602081101561108f57600080fd5b8101908080519060200190929190505050600160006101000a81548173ffffffffffffffffffffffffffffffffffffffff021916908373ffffffffffffffffffffffffffffffffffffffff1602179055505b600160009054906101000a900473ffffffffffffffffffffffffffffffffffffffff1673ffffffffffffffffffffffffffffffffffffffff1663c281d19e6040518163ffffffff1660e01b815260040160206040518083038186803b15801561114957600080fd5b505afa15801561115d573d6000803e3d6000fd5b505050506040513d602081101561117357600080fd5b8101908080519060200190929190505050905090565b60007f4c00000000000000000000000000000000000000000000000000000000000000826000815181106111b957fe5b602001015160f81c60f81b7effffffffffffffffffffffffffffffffffffffffffffffffffffffffffffff191614158061124c57507f50000000000000000000000000000000000000000000000000000000000000008260018151811061121c57fe5b602001015160f81c60f81b7effffffffffffffffffffffffffffffffffffffffffffffffffffffffffffff191614155b806112785750600160ff168260028151811061126457fe5b602001015160f81c60f81b60f81c60ff1614155b1561128657600190506112b2565b600061129b838686611296611870565b611912565b9050806112ac5760029150506112b2565b60009150505b9392505050565b600080831180156112cb575060208311155b6112d457600080fd5b600a84029350606060016040519080825280601f01601f1916602001820160405280156113105781602001600182028038833980820191505090505b5090508360f81b8160008151811061132457fe5b60200101907effffffffffffffffffffffffffffffffffffffffffffffffffffffffffffff1916908160001a905350606060206040519080825280601f01601f1916602001820160405280156113895781602001600182028038833980820191505090505b509050606060206040519080825280601f01601f1916602001820160405280156113c25781602001600182028038833980820191505090505b50905060006113cf611fbd565b905060208352424118600143034018602084015260208252806020830152606060206040519080825280601f01601f1916602001820160405280156114235781602001600182028038833980820191505090505b509050886020820152606060086040519080825280601f01601f1916602001820160405280156114625781602001600182028038833980820191505090505b50905061147582601860088460006122dd565b5061147e613c71565b604051806080016040528087815260200188815260200186815260200184815250905060006114e36040518060400160405280600681526020017f72616e646f6d0000000000000000000000000000000000000000000000000000815250838c61233c565b9050606060086040519080825280601f01601f19166020018201604052801561151b5781602001600182028038833980820191505090505b50905060208401517f0100000000000000000000000000000000000000000000000000000000000000810460278301537e01000000000000000000000000000000000000000000000000000000000000810460268301537d010000000000000000000000000000000000000000000000000000000000810460258301537c0100000000000000000000000000000000000000000000000000000000810460248301537b01000000000000000000000000000000000000000000000000000000810460238301537a01000000000000000000000000000000000000000000000000000081046022830153790100000000000000000000000000000000000000000000000000810460218301537801000000000000000000000000000000000000000000000000810460208301535061184182828560016004811061165a57fe5b602002015160028760006004811061166e57fe5b60200201516040518082805190602001908083835b602083106116a65780518252602082019150602081019050602083039250611683565b6001836020036101000a038019825116818451168082178552505050505050905001915050602060405180830381855afa1580156116e8573d6000803e3d6000fd5b5050506040513d60208110156116fd57600080fd5b81019080805190602001909291905050508760026004811061171b57fe5b60200201516040516020018085805190602001908083835b602083106117565780518252602082019150602081019050602083039250611733565b6001836020036101000a03801982511681845116808217855250505050505090500184805190602001908083835b602083106117a75780518252602082019150602081019050602083039250611784565b6001836020036101000a03801982511681845116808217855250505050505090500183815260200182805190602001908083835b602083106117fe57805182526020820191506020810190506020830392506117db565b6001836020036101000a038019825116818451168082178552505050505050905001945050505050604051602081830303815290604052805190602001206126ab565b8199505050505050505050509392505050565b6000813b9050919050565b60006118696126c7565b9050919050565b606060038054600181600116156101000203166002900480601f0160208091040260200160405190810160405280929190818152602001828054600181600116156101000203166002900480156119085780601f106118dd57610100808354040283529160200191611908565b820191906000526020600020905b8154815290600101906020018083116118eb57829003601f168201915b5050505050905090565b600080602060028760458151811061192657fe5b602001015160f81c60f81b60f81c60ff1601604401019050606060206040519080825280601f01601f1916602001820160405280156119745781602001600182028038833980820191505090505b509050611986878360208460006122dd565b50600284876040516020018083805190602001908083835b602083106119c1578051825260208201915060208101905060208303925061199e565b6001836020036101000a038019825116818451168082178552505050505050905001828152602001925050506040516020818303038152906040526040518082805190602001908083835b60208310611a2f5780518252602082019150602081019050602083039250611a0c565b6001836020036101000a038019825116818451168082178552505050505050905001915050602060405180830381855afa158015611a71573d6000803e3d6000fd5b5050506040513d6020811015611a8657600080fd5b81019080805190602001909291905050506040516020018082815260200191505060405160208183030381529060405280519060200120818051906020012014611ad557600092505050611fb5565b60606002886001604986010181518110611aeb57fe5b602001015160f81c60f81b60f81c60ff16016040519080825280601f01601f191660200182016040528015611b2f5781602001600182028038833980820191505090505b509050611b44886049850183518460006122dd565b50611c0f6002826040518082805190602001908083835b60208310611b7e5780518252602082019150602081019050602083039250611b5b565b6001836020036101000a038019825116818451168082178552505050505050905001915050602060405180830381855afa158015611bc0573d6000803e3d6000fd5b5050506040513d6020811015611bd557600080fd5b8101908080519060200190929190505050878a6008602088010181518110611bf957fe5b602001015160f81c60f81b60f81c60ff16612c1e565b611c1f5760009350505050611fb5565b606060296040519080825280601f01601f191660200182016040528015611c555781602001600182028038833980820191505090505b509050611c6a896020860160298460006122dd565b506060604080519080825280601f01601f191660200182016040528015611ca05781602001600182028038833980820191505090505b5090506000604184516029602089010101019050611cc68b6040830360408560006122dd565b5060006002836040518082805190602001908083835b60208310611cff5780518252602082019150602081019050602083039250611cdc565b6001836020036101000a038019825116818451168082178552505050505050905001915050602060405180830381855afa158015611d41573d6000803e3d6000fd5b5050506040513d6020811015611d5657600080fd5b8101908080519060200190929190505050905083816040516020018083805190602001908083835b60208310611da15780518252602082019150602081019050602083039250611d7e565b6001836020036101000a0380198251168184511680821785525050505050509050018281526020019250505060405160208183030381529060405280519060200120600460008d8152602001908152602001600020541415611e1957600460008c815260200190815260200160002060009055611e29565b6000975050505050505050611fb5565b606060496040519080825280601f01601f191660200182016040528015611e5f5781602001600182028038833980820191505090505b509050611e718d8960498460006122dd565b50611f1a6002826040518082805190602001908083835b60208310611eab5780518252602082019150602081019050602083039250611e88565b6001836020036101000a038019825116818451168082178552505050505050905001915050602060405180830381855afa158015611eed573d6000803e3d6000fd5b5050506040513d6020811015611f0257600080fd5b81019080805190602001909291905050508786612cce565b611f2f57600098505050505050505050611fb5565b6005600083815260200190815260200160002060009054906101000a900460ff16611f8957611f5e8d84612e8c565b6005600084815260200190815260200160002060006101000a81548160ff0219169083151502179055505b6005600083815260200190815260200160002060009054906101000a900460ff16985050505050505050505b949350505050565b60008073ffffffffffffffffffffffffffffffffffffffff16600260009054906101000a900473ffffffffffffffffffffffffffffffffffffffff1673ffffffffffffffffffffffffffffffffffffffff16148061204557506000612043600260009054906101000a900473ffffffffffffffffffffffffffffffffffffffff16611854565b145b1561205657612054600061185f565b505b600260009054906101000a900473ffffffffffffffffffffffffffffffffffffffff1673ffffffffffffffffffffffffffffffffffffffff166338cc48316040518163ffffffff1660e01b8152600401602060405180830381600087803b1580156120c057600080fd5b505af11580156120d4573d6000803e3d6000fd5b505050506040513d60208110156120ea57600080fd5b810190808051906020019092919050505073ffffffffffffffffffffffffffffffffffffffff16600160009054906101000a900473ffffffffffffffffffffffffffffffffffffffff1673ffffffffffffffffffffffffffffffffffffffff161461223557600260009054906101000a900473ffffffffffffffffffffffffffffffffffffffff1673ffffffffffffffffffffffffffffffffffffffff166338cc48316040518163ffffffff1660e01b8152600401602060405180830381600087803b1580156121b957600080fd5b505af11580156121cd573d6000803e3d6000fd5b505050506040513d60208110156121e357600080fd5b8101908080519060200190929190505050600160006101000a81548173ffffffffffffffffffffffffffffffffffffffff021916908373ffffffffffffffffffffffffffffffffffffffff1602179055505b600160009054906101000a900473ffffffffffffffffffffffffffffffffffffffff1673ffffffffffffffffffffffffffffffffffffffff1663abaa5f3e6040518163ffffffff1660e01b815260040160206040518083038186803b15801561229d57600080fd5b505afa1580156122b1573d6000803e3d6000fd5b505050506040513d60208110156122c757600080fd5b8101908080519060200190929190505050905090565b60606000828501905080845110156122f457600080fd5b600086602001905060008460200190505b86886020010182101561232d5781890151808288015250602082019150602081019050612305565b85935050505095945050505050565b60008073ffffffffffffffffffffffffffffffffffffffff16600260009054906101000a900473ffffffffffffffffffffffffffffffffffffffff1673ffffffffffffffffffffffffffffffffffffffff1614806123c4575060006123c2600260009054906101000a900473ffffffffffffffffffffffffffffffffffffffff16611854565b145b156123d5576123d3600061185f565b505b600260009054906101000a900473ffffffffffffffffffffffffffffffffffffffff1673ffffffffffffffffffffffffffffffffffffffff166338cc48316040518163ffffffff1660e01b8152600401602060405180830381600087803b15801561243f57600080fd5b505af1158015612453573d6000803e3d6000fd5b505050506040513d602081101561246957600080fd5b810190808051906020019092919050505073ffffffffffffffffffffffffffffffffffffffff16600160009054906101000a900473ffffffffffffffffffffffffffffffffffffffff1673ffffffffffffffffffffffffffffffffffffffff16146125b457600260009054906101000a900473ffffffffffffffffffffffffffffffffffffffff1673ffffffffffffffffffffffffffffffffffffffff166338cc48316040518163ffffffff1660e01b8152600401602060405180830381600087803b15801561253857600080fd5b505af115801561254c573d6000803e3d6000fd5b505050506040513d602081101561256257600080fd5b8101908080519060200190929190505050600160006101000a81548173ffffffffffffffffffffffffffffffffffffffff021916908373ffffffffffffffffffffffffffffffffffffffff1602179055505b606060046040519080825280602002602001820160405280156125eb57816020015b60608152602001906001900390816125d65790505b509050836000600481106125fb57fe5b60200201518160008151811061260d57fe5b60200260200101819052508360016004811061262557fe5b60200201518160018151811061263757fe5b60200260200101819052508360026004811061264f57fe5b60200201518160028151811061266157fe5b60200260200101819052508360036004811061267957fe5b60200201518160038151811061268b57fe5b60200260200101819052506126a18582856132a4565b9150509392505050565b8060046000848152602001908152602001600020819055505050565b6000806126e7731d3b2638a7cc9f2cb3d298a3da7a90b67e5506ed611854565b111561278957731d3b2638a7cc9f2cb3d298a3da7a90b67e5506ed600260006101000a81548173ffffffffffffffffffffffffffffffffffffffff021916908373ffffffffffffffffffffffffffffffffffffffff1602179055506127806040518060400160405280600b81526020017f6574685f6d61696e6e657400000000000000000000000000000000000000000081525061380a565b60019050612c1b565b60006127a873c03a2615d5efaf5f49f60b7bb6583eaec212fdf1611854565b111561284a5773c03a2615d5efaf5f49f60b7bb6583eaec212fdf1600260006101000a81548173ffffffffffffffffffffffffffffffffffffffff021916908373ffffffffffffffffffffffffffffffffffffffff1602179055506128416040518060400160405280600c81526020017f6574685f726f707374656e33000000000000000000000000000000000000000081525061380a565b60019050612c1b565b600061286973b7a07bcf2ba2f2703b24c0691b5278999c59ac7e611854565b111561290b5773b7a07bcf2ba2f2703b24c0691b5278999c59ac7e600260006101000a81548173ffffffffffffffffffffffffffffffffffffffff021916908373ffffffffffffffffffffffffffffffffffffffff1602179055506129026040518060400160405280600981526020017f6574685f6b6f76616e000000000000000000000000000000000000000000000081525061380a565b60019050612c1b565b600061292a73146500cfd35b22e4a392fe0adc06de1a1368ed48611854565b11156129cc5773146500cfd35b22e4a392fe0adc06de1a1368ed48600260006101000a81548173ffffffffffffffffffffffffffffffffffffffff021916908373ffffffffffffffffffffffffffffffffffffffff1602179055506129c36040518060400160405280600b81526020017f6574685f72696e6b65627900000000000000000000000000000000000000000081525061380a565b60019050612c1b565b60006129eb73a2998efd205fb9d4b4963afb70778d6354ad3a41611854565b1115612a8d5773a2998efd205fb9d4b4963afb70778d6354ad3a41600260006101000a81548173ffffffffffffffffffffffffffffffffffffffff021916908373ffffffffffffffffffffffffffffffffffffffff160217905550612a846040518060400160405280600a81526020017f6574685f676f65726c690000000000000000000000000000000000000000000081525061380a565b60019050612c1b565b6000612aac736f485c8bf6fc43ea212e93bbf8ce046c7f1cb475611854565b1115612b1057736f485c8bf6fc43ea212e93bbf8ce046c7f1cb475600260006101000a81548173ffffffffffffffffffffffffffffffffffffffff021916908373ffffffffffffffffffffffffffffffffffffffff16021790555060019050612c1b565b6000612b2f7320e12a1f859b3feae5fb2a0a32c18f5a65555bbf611854565b1115612b93577320e12a1f859b3feae5fb2a0a32c18f5a65555bbf600260006101000a81548173ffffffffffffffffffffffffffffffffffffffff021916908373ffffffffffffffffffffffffffffffffffffffff16021790555060019050612c1b565b6000612bb27351efaf4c8b3c9afbd5ab9f4bbc82784ab6ef8faa611854565b1115612c16577351efaf4c8b3c9afbd5ab9f4bbc82784ab6ef8faa600260006101000a81548173ffffffffffffffffffffffffffffffffffffffff021916908373ffffffffffffffffffffffffffffffffffffffff16021790555060019050612c1b565b600090505b90565b6000806001905082845114612c3257600080fd5b60008090505b83811015612cc257848181518110612c4c57fe5b602001015160f81c60f81b7effffffffffffffffffffffffffffffffffffffffffffffffffffffffffffff1916868260208110612c8557fe5b1a60f81b7effffffffffffffffffffffffffffffffffffffffffffffffffffffffffffff191614612cb557600091505b8080600101915050612c38565b50809150509392505050565b6000806000806000606060206040519080825280601f01601f191660200182016040528015612d0c5781602001600182028038833980820191505090505b5090506000602089600381518110612d2057fe5b602001015160f81c60f81b60f81c60ff16036004019050612d46898260208560006122dd565b9150606060206040519080825280601f01601f191660200182016040528015612d7e5781602001600182028038833980820191505090505b509050602282019150612dba8a60208c6001860381518110612d9c57fe5b602001015160f81c60f81b60f81c60ff1603840160208460006122dd565b90506020830151945060208101519350612dd78b601b8787613824565b80975081985050508573ffffffffffffffffffffffffffffffffffffffff16898051906020012060001c73ffffffffffffffffffffffffffffffffffffffff161415612e2d576001975050505050505050612e85565b612e3a8b601c8787613824565b80975081985050508573ffffffffffffffffffffffffffffffffffffffff16898051906020012060001c73ffffffffffffffffffffffffffffffffffffffff16149750505050505050505b9392505050565b60008060606002856001860181518110612ea257fe5b602001015160f81c60f81b60f81c60ff16016040519080825280601f01601f191660200182016040528015612ee65781602001600182028038833980820191505090505b509050612ef8858583518460006122dd565b506060604080519080825280601f01601f191660200182016040528015612f2e5781602001600182028038833980820191505090505b509050612f4186600460408460006122dd565b50606060626040519080825280601f01601f191660200182016040528015612f785781602001600182028038833980820191505090505b509050600160f81b81600081518110612f8d57fe5b60200101907effffffffffffffffffffffffffffffffffffffffffffffffffffffffffffff1916908160001a905350612fce876041880360418460016122dd565b5060606040518060400160405280602081526020017ffd94fa71bc0ba10d39d464d0d8f465efeef0a2764e3887fcc9df41ded20f505c815250905061301981600060208560426122dd565b506130c26002836040518082805190602001908083835b602083106130535780518252602082019150602081019050602083039250613030565b6001836020036101000a038019825116818451168082178552505050505050905001915050602060405180830381855afa158015613095573d6000803e3d6000fd5b5050506040513d60208110156130aa57600080fd5b81019080805190602001909291905050508585612cce565b9450846130d75760009550505050505061329e565b6060604051806060016040528060408152602001613d58604091399050606060426040519080825280601f01601f19166020018201604052801561312a5781602001600182028038833980820191505090505b50905060fe60f81b8160008151811061313f57fe5b60200101907effffffffffffffffffffffffffffffffffffffffffffffffffffffffffffff1916908160001a90535061317e8a600360418460016122dd565b50606060028b60458151811061319057fe5b602001015160f81c60f81b60f81c60ff16016040519080825280601f01601f1916602001820160405280156131d45781602001600182028038833980820191505090505b5090506131e78b604483518460006122dd565b506132906002836040518082805190602001908083835b6020831061322157805182526020820191506020810190506020830392506131fe565b6001836020036101000a038019825116818451168082178552505050505050905001915050602060405180830381855afa158015613263573d6000803e3d6000fd5b5050506040513d602081101561327857600080fd5b81019080805190602001909291905050508285612cce565b975087985050505050505050505b92915050565b60008073ffffffffffffffffffffffffffffffffffffffff16600260009054906101000a900473ffffffffffffffffffffffffffffffffffffffff1673ffffffffffffffffffffffffffffffffffffffff16148061332c5750600061332a600260009054906101000a900473ffffffffffffffffffffffffffffffffffffffff16611854565b145b1561333d5761333b600061185f565b505b600260009054906101000a900473ffffffffffffffffffffffffffffffffffffffff1673ffffffffffffffffffffffffffffffffffffffff166338cc48316040518163ffffffff1660e01b8152600401602060405180830381600087803b1580156133a757600080fd5b505af11580156133bb573d6000803e3d6000fd5b505050506040513d60208110156133d157600080fd5b810190808051906020019092919050505073ffffffffffffffffffffffffffffffffffffffff16600160009054906101000a900473ffffffffffffffffffffffffffffffffffffffff1673ffffffffffffffffffffffffffffffffffffffff161461351c57600260009054906101000a900473ffffffffffffffffffffffffffffffffffffffff1673ffffffffffffffffffffffffffffffffffffffff166338cc48316040518163ffffffff1660e01b8152600401602060405180830381600087803b1580156134a057600080fd5b505af11580156134b4573d6000803e3d6000fd5b505050506040513d60208110156134ca57600080fd5b8101908080519060200190929190505050600160006101000a81548173ffffffffffffffffffffffffffffffffffffffff021916908373ffffffffffffffffffffffffffffffffffffffff1602179055505b6000600160009054906101000a900473ffffffffffffffffffffffffffffffffffffffff1673ffffffffffffffffffffffffffffffffffffffff16632ef3accc86856040518363ffffffff1660e01b81526004018080602001838152602001828103825284818151815260200191508051906020019080838360005b838110156135b3578082015181840152602081019050613598565b50505050905090810190601f1680156135e05780820380516001836020036101000a031916815260200191505b509350505050602060405180830381600087803b15801561360057600080fd5b505af1158015613614573d6000803e3d6000fd5b505050506040513d602081101561362a57600080fd5b81019080805190602001909291905050509050823a02670de0b6b3a76400000181111561365d576000801b915050613803565b606061366885613868565b9050600160009054906101000a900473ffffffffffffffffffffffffffffffffffffffff1673ffffffffffffffffffffffffffffffffffffffff1663c55c1cb68360008985896040518663ffffffff1660e01b8152600401808581526020018060200180602001848152602001838103835286818151815260200191508051906020019080838360005b8381101561370d5780820151818401526020810190506136f2565b50505050905090810190601f16801561373a5780820380516001836020036101000a031916815260200191505b50838103825285818151815260200191508051906020019080838360005b83811015613773578082015181840152602081019050613758565b50505050905090810190601f1680156137a05780820380516001836020036101000a031916815260200191505b5096505050505050506020604051808303818588803b1580156137c257600080fd5b505af11580156137d6573d6000803e3d6000fd5b50505050506040513d60208110156137ed57600080fd5b8101908080519060200190929190505050925050505b9392505050565b8060039080519060200190613820929190613c98565b5050565b60008060008060405188815287602082015286604082015285606082015260208160808360006001610bb8f192508051915050818193509350505094509492505050565b60606138726138e8565b61387a613d18565b613886816104006138f4565b61388f8161393e565b60008090505b83518110156138d1576138c48482815181106138ad57fe5b60200260200101518361394c90919063ffffffff16565b8080600101915050613895565b506138db81613971565b8060000151915050919050565b60405180590338823950565b600081905060006020828161390557fe5b061461391e576020818161391557fe5b06602003810190505b808360200181815250506040518084526000815281810160405250505050565b61394981600461397f565b50565b61395982600283516139a0565b61396c8183613ae090919063ffffffff16565b505050565b61397c81600761397f565b50565b61399c601f60058360ff16901b1783613b8b90919063ffffffff16565b5050565b601781116139cc576139c78160058460ff16901b60ff161784613b8b90919063ffffffff16565b613adb565b60ff8111613a0d576139f1601860058460ff16901b1784613b8b90919063ffffffff16565b613a0781600185613bcb9092919063ffffffff16565b50613ada565b61ffff8111613a4f57613a33601960058460ff16901b1784613b8b90919063ffffffff16565b613a4981600285613bcb9092919063ffffffff16565b50613ad9565b63ffffffff8111613a9357613a77601a60058460ff16901b1784613b8b90919063ffffffff16565b613a8d81600485613bcb9092919063ffffffff16565b50613ad8565b67ffffffffffffffff8111613ad757613abf601b60058460ff16901b1784613b8b90919063ffffffff16565b613ad581600885613bcb9092919063ffffffff16565b505b5b5b5b5b505050565b613ae8613d18565b82602001518360000151518351011115613b1857613b17836002613b1186602001518651613c32565b02613c4e565b5b60008060008451905085518051602081830101945086518101825260208701935050505b60208110613b5f5781518352602083019250602082019150602081039050613b3c565b60006001826020036101000a039050801983511681855116818117865250508694505050505092915050565b81602001516001836000015151011115613bb157613bb0826002846020015102613c4e565b5b815180516020818301018381536001820183525050505050565b613bd3613d18565b836020015184600001515183011115613c0157613c00846002613bfa876020015186613c32565b02613c4e565b5b60006001836101000a0390508451805184818301018684198251161781528582018352505050849150509392505050565b600081831115613c4457829050613c48565b8190505b92915050565b606082600001519050613c6183836138f4565b613c6b8382613ae0565b50505050565b60405180608001604052806004905b6060815260200190600190039081613c805790505090565b828054600181600116156101000203166002900490600052602060002090601f016020900481019282601f10613cd957805160ff1916838001178555613d07565b82800160010185558215613d07579182015b82811115613d06578251825591602001919060010190613ceb565b5b509050613d149190613d32565b5090565b604051806040016040528060608152602001600081525090565b613d5491905b80821115613d50576000816000905550600101613d38565b5090565b9056fe7fb956469c5c9b89840d55b43537e66a98dd4811ea0a27224272c2e5622911e8537a2f8e86a46baec82864e98dd01e9ccc2f8bc5dfc9cbe5a91a290498dd96e450726f7661626c65207175657279207761732073656e742c207374616e64696e6720627920666f722074686520616e737765722e2e2ea265627a7a7231582049861a13856eaa91664d145d0d49a6e51c2ee45fe45755f5b640332ba1228dca64736f6c63430005100032",
  "source": "import \"./Ownable.sol\";\r\nimport \"./provableAPI.sol\";\r\npragma solidity ^0.5.12;\r\n\r\ncontract CoinFlip is Ownable, usingProvable{\r\n    \r\n    uint256 private constant NUM_RANDOM_BYTES_REQUESTED = 1;\r\n    bytes32 queryId;\r\n    uint256 public latestNumber;\r\n\r\n    constructor() public {\r\n        provable_setProof(proofType_Ledger);\r\n    }\r\n    \r\n    struct Bet {\r\n        address payable player;                         \r\n        uint betValue;                                    \r\n        bool result;      \r\n\r\n    }\r\n\r\n    uint public balance;\r\n\r\n    mapping(address => uint) public balances;\r\n    mapping (bytes32 => Bet) public betList; \r\n    mapping(address => bool) public waitingList;\r\n    \r\n    \r\n\r\n\r\n    event StartBetEvent(address player, uint betValue, bytes32 Id);\r\n    event EndBetEvent(address player, uint betValue, bytes32 Id, bool result);\r\n    event LogNewProvableQuery(string description);\r\n    event latestNumberEvent (uint256 latestNumber);\r\n    \r\n    modifier validateBet(){\r\n        require(msg.value > 0 && msg.value <= balance);\r\n        _;\r\n    }\r\n\r\n\r\n\r\n\r\n    function settleBet() public payable validateBet {\r\n        \r\n        require(msg.value <= balance / 2, \"Not enough funds to pay out\");\r\n\r\n        require(waitingList[msg.sender] == false);\r\n\r\n        waitingList[msg.sender] = true;\r\n\r\n        uint256 QUERY_EXECUTION_DELAY = 0;\r\n        uint256 GAS_FOR_CALLBACK = 200000;\r\n\r\n        queryId = provable_newRandomDSQuery(\r\n            QUERY_EXECUTION_DELAY,\r\n            NUM_RANDOM_BYTES_REQUESTED,\r\n            GAS_FOR_CALLBACK\r\n        );\r\n\r\n\r\n        betList[queryId] = Bet(msg.sender,  msg.value, false);  \r\n\r\n        emit StartBetEvent(msg.sender, msg.value, queryId);\r\n        emit LogNewProvableQuery(\"Provable query was sent, standing by for the answer...\");\r\n    }\r\n\r\n    function __callback(bytes32 _queryId,string memory _result, bytes memory _proof) public {\r\n        \r\n        require(msg.sender == provable_cbAddress());\r\n        \r\n        if (provable_randomDS_proofVerify__returnCode(_queryId, _result, _proof) != 0) {\r\n            \r\n        } else {\r\n\r\n            uint256 randomNumber = uint256(keccak256(abi.encodePacked(_result))) % 2;\r\n\r\n            \r\n            latestNumber = randomNumber;\r\n\r\n            if(latestNumber == 0){\r\n                betList[_queryId].result = false; // LOST\r\n                balance += betList[_queryId].betValue;\r\n            }\r\n\r\n            else if(latestNumber == 1){\r\n                betList[_queryId].result = true; // WIN\r\n                balance -= betList[_queryId].betValue*2;\r\n                balances[betList[_queryId].player] += betList[_queryId].betValue * 2;\r\n            }\r\n\r\n        }\r\n\r\n        \r\n        waitingList[betList[_queryId].player] = false;\r\n\r\n        \r\n        emit latestNumberEvent(latestNumber);\r\n        emit EndBetEvent(betList[_queryId].player,betList[_queryId].betValue, _queryId, betList[_queryId].result);\r\n    }\r\n\r\n    function addFunds() public onlyOwner payable returns(uint) {\r\n        require(msg.value > 0);\r\n        balance += msg.value;\r\n        return balance;\r\n    }\r\n\r\n\r\n    function withdrawAll() public onlyOwner returns(uint) {\r\n       uint toTransfer = balance;\r\n       balance = 0;\r\n       msg.sender.transfer(toTransfer);\r\n       return toTransfer;\r\n   }\r\n\r\n\r\n\r\n}",
  "sourcePath": "C:/Users/User/etherum-course-advanced/Project-coinFlip/contracts/CoinFlip.sol",
  "compiler": {
    "name": "solc",
    "version": "0.5.16+commit.9c3226ce.Emscripten.clang"
  },
  "schemaVersion": "3.3.2",
  "updatedAt": "2021-01-12T11:10:14.714Z",
  "devdoc": {
    "methods": {
      "__callback(bytes32,string)": {
        "details": "The following `__callback` functions are just placeholders ideally     meant to be defined in child contract when proofs are used.     The function bodies simply silence compiler warnings."
      }
    }
  },
  "userdoc": {
    "methods": {}
  }
}