{
  "contractName": "CoinFlip",
  "abi": [
    {
      "inputs": [],
      "payable": false,
      "stateMutability": "nonpayable",
      "type": "constructor"
    },
    {
      "anonymous": false,
      "inputs": [
        {
          "indexed": false,
          "internalType": "address",
          "name": "player",
          "type": "address"
        },
        {
          "indexed": false,
          "internalType": "uint256",
          "name": "betValue",
          "type": "uint256"
        },
        {
          "indexed": false,
          "internalType": "bytes32",
          "name": "Id",
          "type": "bytes32"
        },
        {
          "indexed": false,
          "internalType": "bool",
          "name": "result",
          "type": "bool"
        }
      ],
      "name": "EndBetEvent",
      "type": "event"
    },
    {
      "anonymous": false,
      "inputs": [
        {
          "indexed": false,
          "internalType": "string",
          "name": "description",
          "type": "string"
        }
      ],
      "name": "LogNewProvableQuery",
      "type": "event"
    },
    {
      "anonymous": false,
      "inputs": [
        {
          "indexed": false,
          "internalType": "address",
          "name": "player",
          "type": "address"
        },
        {
          "indexed": false,
          "internalType": "uint256",
          "name": "betValue",
          "type": "uint256"
        },
        {
          "indexed": false,
          "internalType": "bytes32",
          "name": "Id",
          "type": "bytes32"
        }
      ],
      "name": "StartBetEvent",
      "type": "event"
    },
    {
      "anonymous": false,
      "inputs": [
        {
          "indexed": false,
          "internalType": "uint256",
          "name": "latestNumber",
          "type": "uint256"
        }
      ],
      "name": "latestNumberEvent",
      "type": "event"
    },
    {
      "constant": true,
      "inputs": [],
      "name": "balance",
      "outputs": [
        {
          "internalType": "uint256",
          "name": "",
          "type": "uint256"
        }
      ],
      "payable": false,
      "stateMutability": "view",
      "type": "function"
    },
    {
      "constant": true,
      "inputs": [
        {
          "internalType": "address",
          "name": "",
          "type": "address"
        }
      ],
      "name": "balances",
      "outputs": [
        {
          "internalType": "uint256",
          "name": "",
          "type": "uint256"
        }
      ],
      "payable": false,
      "stateMutability": "view",
      "type": "function"
    },
    {
      "constant": true,
      "inputs": [
        {
          "internalType": "bytes32",
          "name": "",
          "type": "bytes32"
        }
      ],
      "name": "betList",
      "outputs": [
        {
          "internalType": "address payable",
          "name": "player",
          "type": "address"
        },
        {
          "internalType": "uint256",
          "name": "betValue",
          "type": "uint256"
        },
        {
          "internalType": "bool",
          "name": "result",
          "type": "bool"
        }
      ],
      "payable": false,
      "stateMutability": "view",
      "type": "function"
    },
    {
      "constant": true,
      "inputs": [],
      "name": "latestNumber",
      "outputs": [
        {
          "internalType": "uint256",
          "name": "",
          "type": "uint256"
        }
      ],
      "payable": false,
      "stateMutability": "view",
      "type": "function"
    },
    {
      "constant": true,
      "inputs": [],
      "name": "owner",
      "outputs": [
        {
          "internalType": "address",
          "name": "",
          "type": "address"
        }
      ],
      "payable": false,
      "stateMutability": "view",
      "type": "function"
    },
    {
      "constant": true,
      "inputs": [
        {
          "internalType": "address",
          "name": "",
          "type": "address"
        }
      ],
      "name": "waitingList",
      "outputs": [
        {
          "internalType": "bool",
          "name": "",
          "type": "bool"
        }
      ],
      "payable": false,
      "stateMutability": "view",
      "type": "function"
    },
    {
      "constant": false,
      "inputs": [],
      "name": "settleBet",
      "outputs": [],
      "payable": true,
      "stateMutability": "payable",
      "type": "function"
    },
    {
      "constant": false,
      "inputs": [
        {
          "internalType": "bytes32",
          "name": "_myid",
          "type": "bytes32"
        },
        {
          "internalType": "string",
          "name": "_result",
          "type": "string"
        }
      ],
      "name": "__callback",
      "outputs": [],
      "payable": false,
      "stateMutability": "nonpayable",
      "type": "function"
    },
    {
      "constant": false,
      "inputs": [
        {
          "internalType": "bytes32",
          "name": "_queryId",
          "type": "bytes32"
        },
        {
          "internalType": "string",
          "name": "_result",
          "type": "string"
        },
        {
          "internalType": "bytes",
          "name": "_proof",
          "type": "bytes"
        }
      ],
      "name": "__callback",
      "outputs": [],
      "payable": false,
      "stateMutability": "nonpayable",
      "type": "function"
    },
    {
      "constant": false,
      "inputs": [],
      "name": "addFunds",
      "outputs": [
        {
          "internalType": "uint256",
          "name": "",
          "type": "uint256"
        }
      ],
      "payable": true,
      "stateMutability": "payable",
      "type": "function"
    },
    {
      "constant": false,
      "inputs": [],
      "name": "withdrawAll",
      "outputs": [
        {
          "internalType": "uint256",
          "name": "",
          "type": "uint256"
        }
      ],
      "payable": false,
      "stateMutability": "nonpayable",
      "type": "function"
    }
  ],
  "bytecode": "0x60806040523480156200001157600080fd5b50336000806101000a81548173ffffffffffffffffffffffffffffffffffffffff021916908373ffffffffffffffffffffffffffffffffffffffff16021790555062000067603060f81b6200006d60201b60201c565b62000a91565b600073ffffffffffffffffffffffffffffffffffffffff16600260009054906101000a900473ffffffffffffffffffffffffffffffffffffffff1673ffffffffffffffffffffffffffffffffffffffff161480620000fd57506000620000fb600260009054906101000a900473ffffffffffffffffffffffffffffffffffffffff16620003d360201b60201c565b145b156200011757620001156000620003de60201b60201c565b505b600260009054906101000a900473ffffffffffffffffffffffffffffffffffffffff1673ffffffffffffffffffffffffffffffffffffffff166338cc48316040518163ffffffff1660e01b8152600401602060405180830381600087803b1580156200018257600080fd5b505af115801562000197573d6000803e3d6000fd5b505050506040513d6020811015620001ae57600080fd5b810190808051906020019092919050505073ffffffffffffffffffffffffffffffffffffffff16600160009054906101000a900473ffffffffffffffffffffffffffffffffffffffff1673ffffffffffffffffffffffffffffffffffffffff1614620002fd57600260009054906101000a900473ffffffffffffffffffffffffffffffffffffffff1673ffffffffffffffffffffffffffffffffffffffff166338cc48316040518163ffffffff1660e01b8152600401602060405180830381600087803b1580156200027f57600080fd5b505af115801562000294573d6000803e3d6000fd5b505050506040513d6020811015620002ab57600080fd5b8101908080519060200190929190505050600160006101000a81548173ffffffffffffffffffffffffffffffffffffffff021916908373ffffffffffffffffffffffffffffffffffffffff1602179055505b600160009054906101000a900473ffffffffffffffffffffffffffffffffffffffff1673ffffffffffffffffffffffffffffffffffffffff1663688dcfd7826040518263ffffffff1660e01b815260040180827effffffffffffffffffffffffffffffffffffffffffffffffffffffffffffff19167effffffffffffffffffffffffffffffffffffffffffffffffffffffffffffff19168152602001915050600060405180830381600087803b158015620003b757600080fd5b505af1158015620003cc573d6000803e3d6000fd5b5050505050565b6000813b9050919050565b6000620003f0620003f760201b60201c565b9050919050565b6000806200041f731d3b2638a7cc9f2cb3d298a3da7a90b67e5506ed620003d360201b60201c565b1115620004cb57731d3b2638a7cc9f2cb3d298a3da7a90b67e5506ed600260006101000a81548173ffffffffffffffffffffffffffffffffffffffff021916908373ffffffffffffffffffffffffffffffffffffffff160217905550620004c16040518060400160405280600b81526020017f6574685f6d61696e6e6574000000000000000000000000000000000000000000815250620009c660201b60201c565b60019050620009c3565b6000620004f273c03a2615d5efaf5f49f60b7bb6583eaec212fdf1620003d360201b60201c565b11156200059e5773c03a2615d5efaf5f49f60b7bb6583eaec212fdf1600260006101000a81548173ffffffffffffffffffffffffffffffffffffffff021916908373ffffffffffffffffffffffffffffffffffffffff160217905550620005946040518060400160405280600c81526020017f6574685f726f707374656e330000000000000000000000000000000000000000815250620009c660201b60201c565b60019050620009c3565b6000620005c573b7a07bcf2ba2f2703b24c0691b5278999c59ac7e620003d360201b60201c565b1115620006715773b7a07bcf2ba2f2703b24c0691b5278999c59ac7e600260006101000a81548173ffffffffffffffffffffffffffffffffffffffff021916908373ffffffffffffffffffffffffffffffffffffffff160217905550620006676040518060400160405280600981526020017f6574685f6b6f76616e0000000000000000000000000000000000000000000000815250620009c660201b60201c565b60019050620009c3565b60006200069873146500cfd35b22e4a392fe0adc06de1a1368ed48620003d360201b60201c565b1115620007445773146500cfd35b22e4a392fe0adc06de1a1368ed48600260006101000a81548173ffffffffffffffffffffffffffffffffffffffff021916908373ffffffffffffffffffffffffffffffffffffffff1602179055506200073a6040518060400160405280600b81526020017f6574685f72696e6b656279000000000000000000000000000000000000000000815250620009c660201b60201c565b60019050620009c3565b60006200076b73a2998efd205fb9d4b4963afb70778d6354ad3a41620003d360201b60201c565b1115620008175773a2998efd205fb9d4b4963afb70778d6354ad3a41600260006101000a81548173ffffffffffffffffffffffffffffffffffffffff021916908373ffffffffffffffffffffffffffffffffffffffff1602179055506200080d6040518060400160405280600a81526020017f6574685f676f65726c6900000000000000000000000000000000000000000000815250620009c660201b60201c565b60019050620009c3565b60006200083e736f485c8bf6fc43ea212e93bbf8ce046c7f1cb475620003d360201b60201c565b1115620008a457736f485c8bf6fc43ea212e93bbf8ce046c7f1cb475600260006101000a81548173ffffffffffffffffffffffffffffffffffffffff021916908373ffffffffffffffffffffffffffffffffffffffff16021790555060019050620009c3565b6000620008cb7320e12a1f859b3feae5fb2a0a32c18f5a65555bbf620003d360201b60201c565b111562000931577320e12a1f859b3feae5fb2a0a32c18f5a65555bbf600260006101000a81548173ffffffffffffffffffffffffffffffffffffffff021916908373ffffffffffffffffffffffffffffffffffffffff16021790555060019050620009c3565b6000620009587351efaf4c8b3c9afbd5ab9f4bbc82784ab6ef8faa620003d360201b60201c565b1115620009be577351efaf4c8b3c9afbd5ab9f4bbc82784ab6ef8faa600260006101000a81548173ffffffffffffffffffffffffffffffffffffffff021916908373ffffffffffffffffffffffffffffffffffffffff16021790555060019050620009c3565b600090505b90565b8060039080519060200190620009de929190620009e2565b5050565b828054600181600116156101000203166002900490600052602060002090601f016020900481019282601f1062000a2557805160ff191683800117855562000a56565b8280016001018555821562000a56579182015b8281111562000a5557825182559160200191906001019062000a38565b5b50905062000a65919062000a69565b5090565b62000a8e91905b8082111562000a8a57600081600090555060010162000a70565b5090565b90565b613e708062000aa16000396000f3fe60806040526004361061009c5760003560e01c8063853828b611610064578063853828b6146104375780638da5cb5b146104625780638e4bf820146104b9578063a26759cb146104c3578063b69ef8a8146104e1578063dc34b0aa1461050c5761009c565b806327dc297e146100a157806327e235e31461017357806338bbfa50146101d8578063397148d3146103415780635ae129fe146103aa575b600080fd5b3480156100ad57600080fd5b50610171600480360360408110156100c457600080fd5b8101908080359060200190929190803590602001906401000000008111156100eb57600080fd5b8201836020820111156100fd57600080fd5b8035906020019184600183028401116401000000008311171561011f57600080fd5b91908080601f016020809104026020016040519081016040528093929190818152602001838380828437600081840152601f19601f820116905080830192505050505050509192919290505050610537565b005b34801561017f57600080fd5b506101c26004803603602081101561019657600080fd5b81019080803573ffffffffffffffffffffffffffffffffffffffff16906020019092919050505061057a565b6040518082815260200191505060405180910390f35b3480156101e457600080fd5b5061033f600480360360608110156101fb57600080fd5b81019080803590602001909291908035906020019064010000000081111561022257600080fd5b82018360208201111561023457600080fd5b8035906020019184600183028401116401000000008311171561025657600080fd5b91908080601f016020809104026020016040519081016040528093929190818152602001838380828437600081840152601f19601f820116905080830192505050505050509192919290803590602001906401000000008111156102b957600080fd5b8201836020820111156102cb57600080fd5b803590602001918460018302840111640100000000831117156102ed57600080fd5b91908080601f016020809104026020016040519081016040528093929190818152602001838380828437600081840152601f19601f820116905080830192505050505050509192919290505050610592565b005b34801561034d57600080fd5b506103906004803603602081101561036457600080fd5b81019080803573ffffffffffffffffffffffffffffffffffffffff169060200190929190505050610997565b604051808215151515815260200191505060405180910390f35b3480156103b657600080fd5b506103e3600480360360208110156103cd57600080fd5b81019080803590602001909291905050506109b7565b604051808473ffffffffffffffffffffffffffffffffffffffff1673ffffffffffffffffffffffffffffffffffffffff16815260200183815260200182151515158152602001935050505060405180910390f35b34801561044357600080fd5b5061044c610a0e565b6040518082815260200191505060405180910390f35b34801561046e57600080fd5b50610477610ac6565b604051808273ffffffffffffffffffffffffffffffffffffffff1673ffffffffffffffffffffffffffffffffffffffff16815260200191505060405180910390f35b6104c1610aeb565b005b6104cb610e4f565b6040518082815260200191505060405180910390f35b3480156104ed57600080fd5b506104f6610ecf565b6040518082815260200191505060405180910390f35b34801561051857600080fd5b50610521610ed5565b6040518082815260200191505060405180910390f35b610576828260006040519080825280601f01601f1916602001820160405280156105705781602001600182028038833980820191505090505b50610592565b5050565b60096020528060005260406000206000915090505481565b61059a610edb565b73ffffffffffffffffffffffffffffffffffffffff163373ffffffffffffffffffffffffffffffffffffffff16146105d157600080fd5b60006105de8484846111fb565b60ff16146105eb576107dd565b60006002836040516020018082805190602001908083835b602083106106265780518252602082019150602081019050602083039250610603565b6001836020036101000a0380198251168184511680821785525050505050509050019150506040516020818303038152906040528051906020012060001c8161066b57fe5b06905080600781905550600060075414156106da576000600a600086815260200190815260200160002060020160006101000a81548160ff021916908315150217905550600a6000858152602001908152602001600020600101546008600082825401925050819055506107db565b600160075414156107da576001600a600086815260200190815260200160002060020160006101000a81548160ff0219169083151502179055506002600a600086815260200190815260200160002060010154026008600082825403925050819055506002600a6000868152602001908152602001600020600101540260096000600a600088815260200190815260200160002060000160009054906101000a900473ffffffffffffffffffffffffffffffffffffffff1673ffffffffffffffffffffffffffffffffffffffff1673ffffffffffffffffffffffffffffffffffffffff168152602001908152602001600020600082825401925050819055505b5b505b6000600b6000600a600087815260200190815260200160002060000160009054906101000a900473ffffffffffffffffffffffffffffffffffffffff1673ffffffffffffffffffffffffffffffffffffffff1673ffffffffffffffffffffffffffffffffffffffff16815260200190815260200160002060006101000a81548160ff0219169083151502179055507f3268927681ebfd226b1ec82d2a4499abffc9c969993799ba058596a422e2cb116007546040518082815260200191505060405180910390a17f0bf15375620c4ef1c5ed7abe405e0fb986a47a39884fd61f6fd6db8da9b079c1600a600085815260200190815260200160002060000160009054906101000a900473ffffffffffffffffffffffffffffffffffffffff16600a60008681526020019081526020016000206001015485600a600088815260200190815260200160002060020160009054906101000a900460ff16604051808573ffffffffffffffffffffffffffffffffffffffff1673ffffffffffffffffffffffffffffffffffffffff1681526020018481526020018381526020018215151515815260200194505050505060405180910390a1505050565b600b6020528060005260406000206000915054906101000a900460ff1681565b600a6020528060005260406000206000915090508060000160009054906101000a900473ffffffffffffffffffffffffffffffffffffffff16908060010154908060020160009054906101000a900460ff16905083565b60008060009054906101000a900473ffffffffffffffffffffffffffffffffffffffff1673ffffffffffffffffffffffffffffffffffffffff163373ffffffffffffffffffffffffffffffffffffffff1614610a6957600080fd5b6000600854905060006008819055503373ffffffffffffffffffffffffffffffffffffffff166108fc829081150290604051600060405180830381858888f19350505050158015610abe573d6000803e3d6000fd5b508091505090565b6000809054906101000a900473ffffffffffffffffffffffffffffffffffffffff1681565b600034118015610afd57506008543411155b610b0657600080fd5b60006008541415610b7f576040517f08c379a00000000000000000000000000000000000000000000000000000000081526004018080602001828103825260088152602001807f596f75206c6f737400000000000000000000000000000000000000000000000081525060200191505060405180910390fd5b600854600234021115610bfa576040517f08c379a000000000000000000000000000000000000000000000000000000000815260040180806020018281038252601b8152602001807f4e6f7420656e6f7567682066756e647320746f20706179206f7574000000000081525060200191505060405180910390fd5b60001515600b60003373ffffffffffffffffffffffffffffffffffffffff1673ffffffffffffffffffffffffffffffffffffffff16815260200190815260200160002060009054906101000a900460ff16151514610c5757600080fd5b6001600b60003373ffffffffffffffffffffffffffffffffffffffff1673ffffffffffffffffffffffffffffffffffffffff16815260200190815260200160002060006101000a81548160ff0219169083151502179055506000809050600062030d409050610cc88260018361132b565b60068190555060405180606001604052803373ffffffffffffffffffffffffffffffffffffffff16815260200134815260200160001515815250600a6000600654815260200190815260200160002060008201518160000160006101000a81548173ffffffffffffffffffffffffffffffffffffffff021916908373ffffffffffffffffffffffffffffffffffffffff1602179055506020820151816001015560408201518160020160006101000a81548160ff0219169083151502179055509050507f65720fbcd98f1bf95d22c3ec7078ef498c8e50205edf54f028ea8240df15a5c13334600654604051808473ffffffffffffffffffffffffffffffffffffffff1673ffffffffffffffffffffffffffffffffffffffff168152602001838152602001828152602001935050505060405180910390a17fc4dc360d0a9c0677a3379ae0a3d81e887f761e65fdf3d7e00859d1bcd3c47389604051808060200182810382526032815260200180613dca6032913960400191505060405180910390a15050565b60008060009054906101000a900473ffffffffffffffffffffffffffffffffffffffff1673ffffffffffffffffffffffffffffffffffffffff163373ffffffffffffffffffffffffffffffffffffffff1614610eaa57600080fd5b60003411610eb757600080fd5b34600860008282540192505081905550600854905090565b60085481565b60075481565b60008073ffffffffffffffffffffffffffffffffffffffff16600260009054906101000a900473ffffffffffffffffffffffffffffffffffffffff1673ffffffffffffffffffffffffffffffffffffffff161480610f6357506000610f61600260009054906101000a900473ffffffffffffffffffffffffffffffffffffffff166118c6565b145b15610f7457610f7260006118d1565b505b600260009054906101000a900473ffffffffffffffffffffffffffffffffffffffff1673ffffffffffffffffffffffffffffffffffffffff166338cc48316040518163ffffffff1660e01b8152600401602060405180830381600087803b158015610fde57600080fd5b505af1158015610ff2573d6000803e3d6000fd5b505050506040513d602081101561100857600080fd5b810190808051906020019092919050505073ffffffffffffffffffffffffffffffffffffffff16600160009054906101000a900473ffffffffffffffffffffffffffffffffffffffff1673ffffffffffffffffffffffffffffffffffffffff161461115357600260009054906101000a900473ffffffffffffffffffffffffffffffffffffffff1673ffffffffffffffffffffffffffffffffffffffff166338cc48316040518163ffffffff1660e01b8152600401602060405180830381600087803b1580156110d757600080fd5b505af11580156110eb573d6000803e3d6000fd5b505050506040513d602081101561110157600080fd5b8101908080519060200190929190505050600160006101000a81548173ffffffffffffffffffffffffffffffffffffffff021916908373ffffffffffffffffffffffffffffffffffffffff1602179055505b600160009054906101000a900473ffffffffffffffffffffffffffffffffffffffff1673ffffffffffffffffffffffffffffffffffffffff1663c281d19e6040518163ffffffff1660e01b815260040160206040518083038186803b1580156111bb57600080fd5b505afa1580156111cf573d6000803e3d6000fd5b505050506040513d60208110156111e557600080fd5b8101908080519060200190929190505050905090565b60007f4c000000000000000000000000000000000000000000000000000000000000008260008151811061122b57fe5b602001015160f81c60f81b7effffffffffffffffffffffffffffffffffffffffffffffffffffffffffffff19161415806112be57507f50000000000000000000000000000000000000000000000000000000000000008260018151811061128e57fe5b602001015160f81c60f81b7effffffffffffffffffffffffffffffffffffffffffffffffffffffffffffff191614155b806112ea5750600160ff16826002815181106112d657fe5b602001015160f81c60f81b60f81c60ff1614155b156112f85760019050611324565b600061130d8386866113086118e2565b611984565b90508061131e576002915050611324565b60009150505b9392505050565b6000808311801561133d575060208311155b61134657600080fd5b600a84029350606060016040519080825280601f01601f1916602001820160405280156113825781602001600182028038833980820191505090505b5090508360f81b8160008151811061139657fe5b60200101907effffffffffffffffffffffffffffffffffffffffffffffffffffffffffffff1916908160001a905350606060206040519080825280601f01601f1916602001820160405280156113fb5781602001600182028038833980820191505090505b509050606060206040519080825280601f01601f1916602001820160405280156114345781602001600182028038833980820191505090505b509050600061144161202f565b905060208352424118600143034018602084015260208252806020830152606060206040519080825280601f01601f1916602001820160405280156114955781602001600182028038833980820191505090505b509050886020820152606060086040519080825280601f01601f1916602001820160405280156114d45781602001600182028038833980820191505090505b5090506114e7826018600884600061234f565b506114f0613ce3565b604051806080016040528087815260200188815260200186815260200184815250905060006115556040518060400160405280600681526020017f72616e646f6d0000000000000000000000000000000000000000000000000000815250838c6123ae565b9050606060086040519080825280601f01601f19166020018201604052801561158d5781602001600182028038833980820191505090505b50905060208401517f0100000000000000000000000000000000000000000000000000000000000000810460278301537e01000000000000000000000000000000000000000000000000000000000000810460268301537d010000000000000000000000000000000000000000000000000000000000810460258301537c0100000000000000000000000000000000000000000000000000000000810460248301537b01000000000000000000000000000000000000000000000000000000810460238301537a0100000000000000000000000000000000000000000000000000008104602283015379010000000000000000000000000000000000000000000000000081046021830153780100000000000000000000000000000000000000000000000081046020830153506118b38282856001600481106116cc57fe5b60200201516002876000600481106116e057fe5b60200201516040518082805190602001908083835b6020831061171857805182526020820191506020810190506020830392506116f5565b6001836020036101000a038019825116818451168082178552505050505050905001915050602060405180830381855afa15801561175a573d6000803e3d6000fd5b5050506040513d602081101561176f57600080fd5b81019080805190602001909291905050508760026004811061178d57fe5b60200201516040516020018085805190602001908083835b602083106117c857805182526020820191506020810190506020830392506117a5565b6001836020036101000a03801982511681845116808217855250505050505090500184805190602001908083835b6020831061181957805182526020820191506020810190506020830392506117f6565b6001836020036101000a03801982511681845116808217855250505050505090500183815260200182805190602001908083835b60208310611870578051825260208201915060208101905060208303925061184d565b6001836020036101000a0380198251168184511680821785525050505050509050019450505050506040516020818303038152906040528051906020012061271d565b8199505050505050505050509392505050565b6000813b9050919050565b60006118db612739565b9050919050565b606060038054600181600116156101000203166002900480601f01602080910402602001604051908101604052809291908181526020018280546001816001161561010002031660029004801561197a5780601f1061194f5761010080835404028352916020019161197a565b820191906000526020600020905b81548152906001019060200180831161195d57829003601f168201915b5050505050905090565b600080602060028760458151811061199857fe5b602001015160f81c60f81b60f81c60ff1601604401019050606060206040519080825280601f01601f1916602001820160405280156119e65781602001600182028038833980820191505090505b5090506119f88783602084600061234f565b50600284876040516020018083805190602001908083835b60208310611a335780518252602082019150602081019050602083039250611a10565b6001836020036101000a038019825116818451168082178552505050505050905001828152602001925050506040516020818303038152906040526040518082805190602001908083835b60208310611aa15780518252602082019150602081019050602083039250611a7e565b6001836020036101000a038019825116818451168082178552505050505050905001915050602060405180830381855afa158015611ae3573d6000803e3d6000fd5b5050506040513d6020811015611af857600080fd5b81019080805190602001909291905050506040516020018082815260200191505060405160208183030381529060405280519060200120818051906020012014611b4757600092505050612027565b60606002886001604986010181518110611b5d57fe5b602001015160f81c60f81b60f81c60ff16016040519080825280601f01601f191660200182016040528015611ba15781602001600182028038833980820191505090505b509050611bb68860498501835184600061234f565b50611c816002826040518082805190602001908083835b60208310611bf05780518252602082019150602081019050602083039250611bcd565b6001836020036101000a038019825116818451168082178552505050505050905001915050602060405180830381855afa158015611c32573d6000803e3d6000fd5b5050506040513d6020811015611c4757600080fd5b8101908080519060200190929190505050878a6008602088010181518110611c6b57fe5b602001015160f81c60f81b60f81c60ff16612c90565b611c915760009350505050612027565b606060296040519080825280601f01601f191660200182016040528015611cc75781602001600182028038833980820191505090505b509050611cdc8960208601602984600061234f565b506060604080519080825280601f01601f191660200182016040528015611d125781602001600182028038833980820191505090505b5090506000604184516029602089010101019050611d388b60408303604085600061234f565b5060006002836040518082805190602001908083835b60208310611d715780518252602082019150602081019050602083039250611d4e565b6001836020036101000a038019825116818451168082178552505050505050905001915050602060405180830381855afa158015611db3573d6000803e3d6000fd5b5050506040513d6020811015611dc857600080fd5b8101908080519060200190929190505050905083816040516020018083805190602001908083835b60208310611e135780518252602082019150602081019050602083039250611df0565b6001836020036101000a0380198251168184511680821785525050505050509050018281526020019250505060405160208183030381529060405280519060200120600460008d8152602001908152602001600020541415611e8b57600460008c815260200190815260200160002060009055611e9b565b6000975050505050505050612027565b606060496040519080825280601f01601f191660200182016040528015611ed15781602001600182028038833980820191505090505b509050611ee38d89604984600061234f565b50611f8c6002826040518082805190602001908083835b60208310611f1d5780518252602082019150602081019050602083039250611efa565b6001836020036101000a038019825116818451168082178552505050505050905001915050602060405180830381855afa158015611f5f573d6000803e3d6000fd5b5050506040513d6020811015611f7457600080fd5b81019080805190602001909291905050508786612d40565b611fa157600098505050505050505050612027565b6005600083815260200190815260200160002060009054906101000a900460ff16611ffb57611fd08d84612efe565b6005600084815260200190815260200160002060006101000a81548160ff0219169083151502179055505b6005600083815260200190815260200160002060009054906101000a900460ff16985050505050505050505b949350505050565b60008073ffffffffffffffffffffffffffffffffffffffff16600260009054906101000a900473ffffffffffffffffffffffffffffffffffffffff1673ffffffffffffffffffffffffffffffffffffffff1614806120b7575060006120b5600260009054906101000a900473ffffffffffffffffffffffffffffffffffffffff166118c6565b145b156120c8576120c660006118d1565b505b600260009054906101000a900473ffffffffffffffffffffffffffffffffffffffff1673ffffffffffffffffffffffffffffffffffffffff166338cc48316040518163ffffffff1660e01b8152600401602060405180830381600087803b15801561213257600080fd5b505af1158015612146573d6000803e3d6000fd5b505050506040513d602081101561215c57600080fd5b810190808051906020019092919050505073ffffffffffffffffffffffffffffffffffffffff16600160009054906101000a900473ffffffffffffffffffffffffffffffffffffffff1673ffffffffffffffffffffffffffffffffffffffff16146122a757600260009054906101000a900473ffffffffffffffffffffffffffffffffffffffff1673ffffffffffffffffffffffffffffffffffffffff166338cc48316040518163ffffffff1660e01b8152600401602060405180830381600087803b15801561222b57600080fd5b505af115801561223f573d6000803e3d6000fd5b505050506040513d602081101561225557600080fd5b8101908080519060200190929190505050600160006101000a81548173ffffffffffffffffffffffffffffffffffffffff021916908373ffffffffffffffffffffffffffffffffffffffff1602179055505b600160009054906101000a900473ffffffffffffffffffffffffffffffffffffffff1673ffffffffffffffffffffffffffffffffffffffff1663abaa5f3e6040518163ffffffff1660e01b815260040160206040518083038186803b15801561230f57600080fd5b505afa158015612323573d6000803e3d6000fd5b505050506040513d602081101561233957600080fd5b8101908080519060200190929190505050905090565b606060008285019050808451101561236657600080fd5b600086602001905060008460200190505b86886020010182101561239f5781890151808288015250602082019150602081019050612377565b85935050505095945050505050565b60008073ffffffffffffffffffffffffffffffffffffffff16600260009054906101000a900473ffffffffffffffffffffffffffffffffffffffff1673ffffffffffffffffffffffffffffffffffffffff16148061243657506000612434600260009054906101000a900473ffffffffffffffffffffffffffffffffffffffff166118c6565b145b156124475761244560006118d1565b505b600260009054906101000a900473ffffffffffffffffffffffffffffffffffffffff1673ffffffffffffffffffffffffffffffffffffffff166338cc48316040518163ffffffff1660e01b8152600401602060405180830381600087803b1580156124b157600080fd5b505af11580156124c5573d6000803e3d6000fd5b505050506040513d60208110156124db57600080fd5b810190808051906020019092919050505073ffffffffffffffffffffffffffffffffffffffff16600160009054906101000a900473ffffffffffffffffffffffffffffffffffffffff1673ffffffffffffffffffffffffffffffffffffffff161461262657600260009054906101000a900473ffffffffffffffffffffffffffffffffffffffff1673ffffffffffffffffffffffffffffffffffffffff166338cc48316040518163ffffffff1660e01b8152600401602060405180830381600087803b1580156125aa57600080fd5b505af11580156125be573d6000803e3d6000fd5b505050506040513d60208110156125d457600080fd5b8101908080519060200190929190505050600160006101000a81548173ffffffffffffffffffffffffffffffffffffffff021916908373ffffffffffffffffffffffffffffffffffffffff1602179055505b6060600460405190808252806020026020018201604052801561265d57816020015b60608152602001906001900390816126485790505b5090508360006004811061266d57fe5b60200201518160008151811061267f57fe5b60200260200101819052508360016004811061269757fe5b6020020151816001815181106126a957fe5b6020026020010181905250836002600481106126c157fe5b6020020151816002815181106126d357fe5b6020026020010181905250836003600481106126eb57fe5b6020020151816003815181106126fd57fe5b6020026020010181905250612713858285613316565b9150509392505050565b8060046000848152602001908152602001600020819055505050565b600080612759731d3b2638a7cc9f2cb3d298a3da7a90b67e5506ed6118c6565b11156127fb57731d3b2638a7cc9f2cb3d298a3da7a90b67e5506ed600260006101000a81548173ffffffffffffffffffffffffffffffffffffffff021916908373ffffffffffffffffffffffffffffffffffffffff1602179055506127f26040518060400160405280600b81526020017f6574685f6d61696e6e657400000000000000000000000000000000000000000081525061387c565b60019050612c8d565b600061281a73c03a2615d5efaf5f49f60b7bb6583eaec212fdf16118c6565b11156128bc5773c03a2615d5efaf5f49f60b7bb6583eaec212fdf1600260006101000a81548173ffffffffffffffffffffffffffffffffffffffff021916908373ffffffffffffffffffffffffffffffffffffffff1602179055506128b36040518060400160405280600c81526020017f6574685f726f707374656e33000000000000000000000000000000000000000081525061387c565b60019050612c8d565b60006128db73b7a07bcf2ba2f2703b24c0691b5278999c59ac7e6118c6565b111561297d5773b7a07bcf2ba2f2703b24c0691b5278999c59ac7e600260006101000a81548173ffffffffffffffffffffffffffffffffffffffff021916908373ffffffffffffffffffffffffffffffffffffffff1602179055506129746040518060400160405280600981526020017f6574685f6b6f76616e000000000000000000000000000000000000000000000081525061387c565b60019050612c8d565b600061299c73146500cfd35b22e4a392fe0adc06de1a1368ed486118c6565b1115612a3e5773146500cfd35b22e4a392fe0adc06de1a1368ed48600260006101000a81548173ffffffffffffffffffffffffffffffffffffffff021916908373ffffffffffffffffffffffffffffffffffffffff160217905550612a356040518060400160405280600b81526020017f6574685f72696e6b65627900000000000000000000000000000000000000000081525061387c565b60019050612c8d565b6000612a5d73a2998efd205fb9d4b4963afb70778d6354ad3a416118c6565b1115612aff5773a2998efd205fb9d4b4963afb70778d6354ad3a41600260006101000a81548173ffffffffffffffffffffffffffffffffffffffff021916908373ffffffffffffffffffffffffffffffffffffffff160217905550612af66040518060400160405280600a81526020017f6574685f676f65726c690000000000000000000000000000000000000000000081525061387c565b60019050612c8d565b6000612b1e736f485c8bf6fc43ea212e93bbf8ce046c7f1cb4756118c6565b1115612b8257736f485c8bf6fc43ea212e93bbf8ce046c7f1cb475600260006101000a81548173ffffffffffffffffffffffffffffffffffffffff021916908373ffffffffffffffffffffffffffffffffffffffff16021790555060019050612c8d565b6000612ba17320e12a1f859b3feae5fb2a0a32c18f5a65555bbf6118c6565b1115612c05577320e12a1f859b3feae5fb2a0a32c18f5a65555bbf600260006101000a81548173ffffffffffffffffffffffffffffffffffffffff021916908373ffffffffffffffffffffffffffffffffffffffff16021790555060019050612c8d565b6000612c247351efaf4c8b3c9afbd5ab9f4bbc82784ab6ef8faa6118c6565b1115612c88577351efaf4c8b3c9afbd5ab9f4bbc82784ab6ef8faa600260006101000a81548173ffffffffffffffffffffffffffffffffffffffff021916908373ffffffffffffffffffffffffffffffffffffffff16021790555060019050612c8d565b600090505b90565b6000806001905082845114612ca457600080fd5b60008090505b83811015612d3457848181518110612cbe57fe5b602001015160f81c60f81b7effffffffffffffffffffffffffffffffffffffffffffffffffffffffffffff1916868260208110612cf757fe5b1a60f81b7effffffffffffffffffffffffffffffffffffffffffffffffffffffffffffff191614612d2757600091505b8080600101915050612caa565b50809150509392505050565b6000806000806000606060206040519080825280601f01601f191660200182016040528015612d7e5781602001600182028038833980820191505090505b5090506000602089600381518110612d9257fe5b602001015160f81c60f81b60f81c60ff16036004019050612db88982602085600061234f565b9150606060206040519080825280601f01601f191660200182016040528015612df05781602001600182028038833980820191505090505b509050602282019150612e2c8a60208c6001860381518110612e0e57fe5b602001015160f81c60f81b60f81c60ff16038401602084600061234f565b90506020830151945060208101519350612e498b601b8787613896565b80975081985050508573ffffffffffffffffffffffffffffffffffffffff16898051906020012060001c73ffffffffffffffffffffffffffffffffffffffff161415612e9f576001975050505050505050612ef7565b612eac8b601c8787613896565b80975081985050508573ffffffffffffffffffffffffffffffffffffffff16898051906020012060001c73ffffffffffffffffffffffffffffffffffffffff16149750505050505050505b9392505050565b60008060606002856001860181518110612f1457fe5b602001015160f81c60f81b60f81c60ff16016040519080825280601f01601f191660200182016040528015612f585781602001600182028038833980820191505090505b509050612f6a8585835184600061234f565b506060604080519080825280601f01601f191660200182016040528015612fa05781602001600182028038833980820191505090505b509050612fb3866004604084600061234f565b50606060626040519080825280601f01601f191660200182016040528015612fea5781602001600182028038833980820191505090505b509050600160f81b81600081518110612fff57fe5b60200101907effffffffffffffffffffffffffffffffffffffffffffffffffffffffffffff1916908160001a9053506130408760418803604184600161234f565b5060606040518060400160405280602081526020017ffd94fa71bc0ba10d39d464d0d8f465efeef0a2764e3887fcc9df41ded20f505c815250905061308b816000602085604261234f565b506131346002836040518082805190602001908083835b602083106130c557805182526020820191506020810190506020830392506130a2565b6001836020036101000a038019825116818451168082178552505050505050905001915050602060405180830381855afa158015613107573d6000803e3d6000fd5b5050506040513d602081101561311c57600080fd5b81019080805190602001909291905050508585612d40565b94508461314957600095505050505050613310565b6060604051806060016040528060408152602001613dfc604091399050606060426040519080825280601f01601f19166020018201604052801561319c5781602001600182028038833980820191505090505b50905060fe60f81b816000815181106131b157fe5b60200101907effffffffffffffffffffffffffffffffffffffffffffffffffffffffffffff1916908160001a9053506131f08a6003604184600161234f565b50606060028b60458151811061320257fe5b602001015160f81c60f81b60f81c60ff16016040519080825280601f01601f1916602001820160405280156132465781602001600182028038833980820191505090505b5090506132598b6044835184600061234f565b506133026002836040518082805190602001908083835b602083106132935780518252602082019150602081019050602083039250613270565b6001836020036101000a038019825116818451168082178552505050505050905001915050602060405180830381855afa1580156132d5573d6000803e3d6000fd5b5050506040513d60208110156132ea57600080fd5b81019080805190602001909291905050508285612d40565b975087985050505050505050505b92915050565b60008073ffffffffffffffffffffffffffffffffffffffff16600260009054906101000a900473ffffffffffffffffffffffffffffffffffffffff1673ffffffffffffffffffffffffffffffffffffffff16148061339e5750600061339c600260009054906101000a900473ffffffffffffffffffffffffffffffffffffffff166118c6565b145b156133af576133ad60006118d1565b505b600260009054906101000a900473ffffffffffffffffffffffffffffffffffffffff1673ffffffffffffffffffffffffffffffffffffffff166338cc48316040518163ffffffff1660e01b8152600401602060405180830381600087803b15801561341957600080fd5b505af115801561342d573d6000803e3d6000fd5b505050506040513d602081101561344357600080fd5b810190808051906020019092919050505073ffffffffffffffffffffffffffffffffffffffff16600160009054906101000a900473ffffffffffffffffffffffffffffffffffffffff1673ffffffffffffffffffffffffffffffffffffffff161461358e57600260009054906101000a900473ffffffffffffffffffffffffffffffffffffffff1673ffffffffffffffffffffffffffffffffffffffff166338cc48316040518163ffffffff1660e01b8152600401602060405180830381600087803b15801561351257600080fd5b505af1158015613526573d6000803e3d6000fd5b505050506040513d602081101561353c57600080fd5b8101908080519060200190929190505050600160006101000a81548173ffffffffffffffffffffffffffffffffffffffff021916908373ffffffffffffffffffffffffffffffffffffffff1602179055505b6000600160009054906101000a900473ffffffffffffffffffffffffffffffffffffffff1673ffffffffffffffffffffffffffffffffffffffff16632ef3accc86856040518363ffffffff1660e01b81526004018080602001838152602001828103825284818151815260200191508051906020019080838360005b8381101561362557808201518184015260208101905061360a565b50505050905090810190601f1680156136525780820380516001836020036101000a031916815260200191505b509350505050602060405180830381600087803b15801561367257600080fd5b505af1158015613686573d6000803e3d6000fd5b505050506040513d602081101561369c57600080fd5b81019080805190602001909291905050509050823a02670de0b6b3a7640000018111156136cf576000801b915050613875565b60606136da856138da565b9050600160009054906101000a900473ffffffffffffffffffffffffffffffffffffffff1673ffffffffffffffffffffffffffffffffffffffff1663c55c1cb68360008985896040518663ffffffff1660e01b8152600401808581526020018060200180602001848152602001838103835286818151815260200191508051906020019080838360005b8381101561377f578082015181840152602081019050613764565b50505050905090810190601f1680156137ac5780820380516001836020036101000a031916815260200191505b50838103825285818151815260200191508051906020019080838360005b838110156137e55780820151818401526020810190506137ca565b50505050905090810190601f1680156138125780820380516001836020036101000a031916815260200191505b5096505050505050506020604051808303818588803b15801561383457600080fd5b505af1158015613848573d6000803e3d6000fd5b50505050506040513d602081101561385f57600080fd5b8101908080519060200190929190505050925050505b9392505050565b8060039080519060200190613892929190613d0a565b5050565b60008060008060405188815287602082015286604082015285606082015260208160808360006001610bb8f192508051915050818193509350505094509492505050565b60606138e461395a565b6138ec613d8a565b6138f881610400613966565b613901816139b0565b60008090505b83518110156139435761393684828151811061391f57fe5b6020026020010151836139be90919063ffffffff16565b8080600101915050613907565b5061394d816139e3565b8060000151915050919050565b60405180590338823950565b600081905060006020828161397757fe5b0614613990576020818161398757fe5b06602003810190505b808360200181815250506040518084526000815281810160405250505050565b6139bb8160046139f1565b50565b6139cb8260028351613a12565b6139de8183613b5290919063ffffffff16565b505050565b6139ee8160076139f1565b50565b613a0e601f60058360ff16901b1783613bfd90919063ffffffff16565b5050565b60178111613a3e57613a398160058460ff16901b60ff161784613bfd90919063ffffffff16565b613b4d565b60ff8111613a7f57613a63601860058460ff16901b1784613bfd90919063ffffffff16565b613a7981600185613c3d9092919063ffffffff16565b50613b4c565b61ffff8111613ac157613aa5601960058460ff16901b1784613bfd90919063ffffffff16565b613abb81600285613c3d9092919063ffffffff16565b50613b4b565b63ffffffff8111613b0557613ae9601a60058460ff16901b1784613bfd90919063ffffffff16565b613aff81600485613c3d9092919063ffffffff16565b50613b4a565b67ffffffffffffffff8111613b4957613b31601b60058460ff16901b1784613bfd90919063ffffffff16565b613b4781600885613c3d9092919063ffffffff16565b505b5b5b5b5b505050565b613b5a613d8a565b82602001518360000151518351011115613b8a57613b89836002613b8386602001518651613ca4565b02613cc0565b5b60008060008451905085518051602081830101945086518101825260208701935050505b60208110613bd15781518352602083019250602082019150602081039050613bae565b60006001826020036101000a039050801983511681855116818117865250508694505050505092915050565b81602001516001836000015151011115613c2357613c22826002846020015102613cc0565b5b815180516020818301018381536001820183525050505050565b613c45613d8a565b836020015184600001515183011115613c7357613c72846002613c6c876020015186613ca4565b02613cc0565b5b60006001836101000a0390508451805184818301018684198251161781528582018352505050849150509392505050565b600081831115613cb657829050613cba565b8190505b92915050565b606082600001519050613cd38383613966565b613cdd8382613b52565b50505050565b60405180608001604052806004905b6060815260200190600190039081613cf25790505090565b828054600181600116156101000203166002900490600052602060002090601f016020900481019282601f10613d4b57805160ff1916838001178555613d79565b82800160010185558215613d79579182015b82811115613d78578251825591602001919060010190613d5d565b5b509050613d869190613da4565b5090565b604051806040016040528060608152602001600081525090565b613dc691905b80821115613dc2576000816000905550600101613daa565b5090565b9056fe50726f7661626c65207175657279207761732073656e742c207374616e64696e6720627920666f7220616e737765722e2e2e7fb956469c5c9b89840d55b43537e66a98dd4811ea0a27224272c2e5622911e8537a2f8e86a46baec82864e98dd01e9ccc2f8bc5dfc9cbe5a91a290498dd96e4a265627a7a72315820696d851fdc731a510d47b0fc0d2e86ef01ab46fa2ceab8da9810376a5dce750164736f6c63430005100032",
  "source": "import \"./Ownable.sol\";\r\nimport \"./provableAPI.sol\";\r\npragma solidity ^0.5.12;\r\n\r\ncontract CoinFlip is Ownable, usingProvable{\r\n    \r\n    uint256 private constant NUM_RANDOM_BYTES_REQUESTED = 1;\r\n    bytes32 queryId;\r\n    uint256 public latestNumber;\r\n\r\n    constructor() public {\r\n        provable_setProof(proofType_Ledger);\r\n    }\r\n    \r\n    struct Bet {\r\n        address payable player;                         \r\n        uint betValue;                                    \r\n        bool result;      \r\n\r\n    }\r\n\r\n    uint public balance;\r\n\r\n    mapping(address => uint) public balances;\r\n    mapping (bytes32 => Bet) public betList; \r\n    mapping(address => bool) public waitingList;\r\n    \r\n    \r\n\r\n\r\n    event StartBetEvent(address player, uint betValue, bytes32 Id);\r\n    event EndBetEvent(address player, uint betValue, bytes32 Id, bool result);\r\n    event LogNewProvableQuery(string description);\r\n    event latestNumberEvent (uint256 latestNumber);\r\n    \r\n    modifier validateBet(){\r\n        require(msg.value > 0 && msg.value <= balance);\r\n        _;\r\n    }\r\n\r\n    \r\n\r\n\r\n    function settleBet() public payable validateBet {\r\n        \r\n        require(balance!=0, \"You lost\");\r\n        require(msg.value*2 <= balance, \"Not enough funds to pay out\");\r\n\r\n        require(waitingList[msg.sender] == false);\r\n\r\n        waitingList[msg.sender] = true;\r\n\r\n        uint256 QUERY_EXECUTION_DELAY = 0;\r\n        uint256 GAS_FOR_CALLBACK = 200000;\r\n\r\n        queryId = provable_newRandomDSQuery(\r\n            QUERY_EXECUTION_DELAY,\r\n            NUM_RANDOM_BYTES_REQUESTED,\r\n            GAS_FOR_CALLBACK\r\n        );\r\n\r\n\r\n        betList[queryId] = Bet(msg.sender,  msg.value, false);  \r\n\r\n        emit StartBetEvent(msg.sender, msg.value, queryId);\r\n        emit LogNewProvableQuery(\"Provable query was sent, standing by for answer...\");\r\n    }\r\n\r\n    function __callback(bytes32 _queryId,string memory _result, bytes memory _proof) public {\r\n        \r\n        require(msg.sender == provable_cbAddress());\r\n        \r\n        if (provable_randomDS_proofVerify__returnCode(_queryId, _result, _proof) != 0) {\r\n            \r\n        } else {\r\n\r\n            uint256 randomNumber = uint256(keccak256(abi.encodePacked(_result))) % 2;\r\n\r\n            \r\n            latestNumber = randomNumber;\r\n\r\n            if(latestNumber == 0){\r\n                betList[_queryId].result = false; // LOST\r\n                balance += betList[_queryId].betValue;\r\n            }\r\n\r\n            else if(latestNumber == 1){\r\n                betList[_queryId].result = true; // WIN\r\n                balance -= betList[_queryId].betValue*2;\r\n                balances[betList[_queryId].player] += betList[_queryId].betValue * 2;\r\n            }\r\n\r\n        }\r\n\r\n        \r\n        waitingList[betList[_queryId].player] = false;\r\n\r\n        \r\n        emit latestNumberEvent(latestNumber);\r\n        emit EndBetEvent(betList[_queryId].player,betList[_queryId].betValue, _queryId, betList[_queryId].result);\r\n    }\r\n\r\n    function addFunds() public onlyOwner payable returns(uint) {\r\n        require(msg.value > 0);\r\n        balance += msg.value;\r\n        return balance;\r\n    }\r\n\r\n    function withdrawAll() public onlyOwner returns(uint) {\r\n       uint toTransfer = balance;\r\n       balance = 0;\r\n       msg.sender.transfer(toTransfer);\r\n       return toTransfer;\r\n   }\r\n\r\n\r\n\r\n}",
  "sourcePath": "C:/Users/User/etherum-course-advanced/Project-coinFlip/contracts/CoinFlip.sol",
  "compiler": {
    "name": "solc",
    "version": "0.5.16+commit.9c3226ce.Emscripten.clang"
  },
  "schemaVersion": "3.3.2",
  "updatedAt": "2020-11-26T09:25:02.062Z",
  "networkType": "ethereum",
  "devdoc": {
    "methods": {
      "__callback(bytes32,string)": {
        "details": "The following `__callback` functions are just placeholders ideally     meant to be defined in child contract when proofs are used.     The function bodies simply silence compiler warnings."
      }
    }
  },
  "userdoc": {
    "methods": {}
  }
}