{
  "contractName": "CoinFlip",
  "abi": [
    {
      "anonymous": false,
      "inputs": [
        {
          "indexed": false,
          "internalType": "uint256",
          "name": "result",
          "type": "uint256"
        }
      ],
      "name": "coinFlipped",
      "type": "event"
    },
    {
      "anonymous": false,
      "inputs": [],
      "name": "flipLost",
      "type": "event"
    },
    {
      "anonymous": false,
      "inputs": [],
      "name": "flipWon",
      "type": "event"
    },
    {
      "constant": false,
      "inputs": [
        {
          "internalType": "bytes32",
          "name": "_myid",
          "type": "bytes32"
        },
        {
          "internalType": "string",
          "name": "_result",
          "type": "string"
        }
      ],
      "name": "__callback",
      "outputs": [],
      "payable": false,
      "stateMutability": "nonpayable",
      "type": "function"
    },
    {
      "constant": false,
      "inputs": [
        {
          "internalType": "bytes32",
          "name": "_myid",
          "type": "bytes32"
        },
        {
          "internalType": "string",
          "name": "_result",
          "type": "string"
        },
        {
          "internalType": "bytes",
          "name": "_proof",
          "type": "bytes"
        }
      ],
      "name": "__callback",
      "outputs": [],
      "payable": false,
      "stateMutability": "nonpayable",
      "type": "function"
    },
    {
      "constant": true,
      "inputs": [],
      "name": "balance",
      "outputs": [
        {
          "internalType": "uint256",
          "name": "",
          "type": "uint256"
        }
      ],
      "payable": false,
      "stateMutability": "view",
      "type": "function"
    },
    {
      "constant": true,
      "inputs": [],
      "name": "owner",
      "outputs": [
        {
          "internalType": "address",
          "name": "",
          "type": "address"
        }
      ],
      "payable": false,
      "stateMutability": "view",
      "type": "function"
    },
    {
      "constant": false,
      "inputs": [
        {
          "internalType": "uint256",
          "name": "prediction",
          "type": "uint256"
        }
      ],
      "name": "settleBet",
      "outputs": [],
      "payable": true,
      "stateMutability": "payable",
      "type": "function"
    },
    {
      "constant": false,
      "inputs": [],
      "name": "addFunds",
      "outputs": [
        {
          "internalType": "uint256",
          "name": "",
          "type": "uint256"
        }
      ],
      "payable": true,
      "stateMutability": "payable",
      "type": "function"
    },
    {
      "constant": false,
      "inputs": [],
      "name": "withdrawAll",
      "outputs": [
        {
          "internalType": "uint256",
          "name": "",
          "type": "uint256"
        }
      ],
      "payable": false,
      "stateMutability": "nonpayable",
      "type": "function"
    }
  ],
  "bytecode": "0x6080604052336000806101000a81548173ffffffffffffffffffffffffffffffffffffffff021916908373ffffffffffffffffffffffffffffffffffffffff160217905550610708806100536000396000f3fe6080604052600436106100705760003560e01c8063853828b61161004e578063853828b6146102de5780638da5cb5b14610309578063a26759cb14610360578063b69ef8a81461037e57610070565b806316fd381a1461007557806327dc297e146100a357806338bbfa5014610175575b600080fd5b6100a16004803603602081101561008b57600080fd5b81019080803590602001909291905050506103a9565b005b3480156100af57600080fd5b50610173600480360360408110156100c657600080fd5b8101908080359060200190929190803590602001906401000000008111156100ed57600080fd5b8201836020820111156100ff57600080fd5b8035906020019184600183028401116401000000008311171561012157600080fd5b91908080601f016020809104026020016040519081016040528093929190818152602001838380828437600081840152601f19601f8201169050808301925050505050505091929192905050506104bc565b005b34801561018157600080fd5b506102dc6004803603606081101561019857600080fd5b8101908080359060200190929190803590602001906401000000008111156101bf57600080fd5b8201836020820111156101d157600080fd5b803590602001918460018302840111640100000000831117156101f357600080fd5b91908080601f016020809104026020016040519081016040528093929190818152602001838380828437600081840152601f19601f8201169050808301925050505050505091929192908035906020019064010000000081111561025657600080fd5b82018360208201111561026857600080fd5b8035906020019184600183028401116401000000008311171561028a57600080fd5b91908080601f016020809104026020016040519081016040528093929190818152602001838380828437600081840152601f19601f8201169050808301925050505050505091929192905050506104ff565b005b3480156102ea57600080fd5b506102f3610522565b6040518082815260200191505060405180910390f35b34801561031557600080fd5b5061031e6105da565b604051808273ffffffffffffffffffffffffffffffffffffffff1673ffffffffffffffffffffffffffffffffffffffff16815260200191505060405180910390f35b6103686105ff565b6040518082815260200191505060405180910390f35b34801561038a57600080fd5b5061039361067f565b6040518082815260200191505060405180910390f35b6000341180156103bb57506006543411155b6103c457600080fd5b60008114806103d35750600181145b6103dc57600080fd5b60006103e6610685565b90508181141561047b577f6b9ced427018a4a76bf211597eb47a05dc6c5cc1a3d5e49e6b93bfa0a66d512b60405160405180910390a1346006600082825403925050819055503373ffffffffffffffffffffffffffffffffffffffff166108fc600234029081150290604051600060405180830381858888f19350505050158015610475573d6000803e3d6000fd5b506104b8565b7fb0685c89c2cd1d36b01edd9e2b9c5cc712086e1ffd6eef1a4c29d06e342bdb7060405160405180910390a1346006600082825401925050819055505b5050565b6104fb828260006040519080825280601f01601f1916602001820160405280156104f55781602001600182028038833980820191505090505b506104ff565b5050565b6000801b600460008060001b815260200190815260200160002081905550505050565b60008060009054906101000a900473ffffffffffffffffffffffffffffffffffffffff1673ffffffffffffffffffffffffffffffffffffffff163373ffffffffffffffffffffffffffffffffffffffff161461057d57600080fd5b6000600654905060006006819055503373ffffffffffffffffffffffffffffffffffffffff166108fc829081150290604051600060405180830381858888f193505050501580156105d2573d6000803e3d6000fd5b508091505090565b6000809054906101000a900473ffffffffffffffffffffffffffffffffffffffff1681565b60008060009054906101000a900473ffffffffffffffffffffffffffffffffffffffff1673ffffffffffffffffffffffffffffffffffffffff163373ffffffffffffffffffffffffffffffffffffffff161461065a57600080fd5b6000341161066757600080fd5b34600660008282540192505081905550600654905090565b60065481565b6000806002428161069257fe5b0690507fdd9e2bb02715082d7ad3303c337c653141faddaa5690c22930da715c8361dbfd816040518082815260200191505060405180910390a1809150509056fea265627a7a7231582089ab0b97fd9b4bb44c80eb9b25341da49402fcb5e0b452f56d2bbe68673d5e8d64736f6c63430005100032",
  "source": "import \"./Ownable.sol\";\r\nimport \"./provableAPI.sol\";\r\npragma solidity ^0.5.12;\r\n\r\ncontract CoinFlip is Ownable, usingProvable{\r\n    \r\n    uint256 constant NUM_RANDOM_BYTES_REQUESTED = 1;\r\n    uint public balance;\r\n    \r\n    \r\n\r\n\r\n    event coinFlipped(uint result);\r\n    event flipWon();\r\n    event flipLost();\r\n    \r\n    modifier validateBet(){\r\n        require(msg.value > 0 && msg.value <= balance);\r\n        _;\r\n    }\r\n\r\n    function flipCoin() private returns(uint) {\r\n        uint result = now % 2;\r\n        emit coinFlipped(result);\r\n        return result;\r\n    }\r\n\r\n\r\n\r\n    function settleBet(uint prediction) public payable validateBet {\r\n        require(prediction == 0 || prediction == 1);\r\n        uint outcome = flipCoin();\r\n        if(outcome == prediction) {\r\n            emit flipWon();\r\n            balance -= msg.value;\r\n            msg.sender.transfer(msg.value * 2);\r\n        } else {\r\n            emit flipLost();\r\n            balance += msg.value;     \r\n        }\r\n    }\r\n\r\n    function addFunds() public onlyOwner payable returns(uint) {\r\n        require(msg.value > 0);\r\n        balance += msg.value;\r\n        return balance;\r\n    }\r\n\r\n    function withdrawAll() public onlyOwner returns(uint) {\r\n       uint toTransfer = balance;\r\n       balance = 0;\r\n       msg.sender.transfer(toTransfer);\r\n       return toTransfer;\r\n   }\r\n\r\n\r\n\r\n}",
  "sourcePath": "C:/Users/User/etherum-course-advanced/Project-coinFlip/contracts/CoinFlip.sol",
  "compiler": {
    "name": "solc",
    "version": "0.5.16+commit.9c3226ce.Emscripten.clang"
  },
  "schemaVersion": "3.3.2",
  "updatedAt": "2020-11-17T14:21:03.028Z",
  "devdoc": {
    "methods": {
      "__callback(bytes32,string)": {
        "details": "The following `__callback` functions are just placeholders ideally     meant to be defined in child contract when proofs are used.     The function bodies simply silence compiler warnings."
      }
    }
  },
  "userdoc": {
    "methods": {}
  }
}